:100000000C944F070C946C070C946C070C946C07C1
:100010000C946C070C946C070C946C070C946C0794
:100020000C946C070C946C070C946C070C946C0784
:100030000C946C070C942B080C946C070C946C07B4
:100040000C946C070C946C070C946C070C946C0764
:100050000C94C3080C946C070C946C070C946C07FC
:100060000C946C070C946C070C946C070C946C0744
:100070006E616E00696E660000407A10F35A00A04F
:10008000724E18090010A5D4E80000E87648170061
:1000900000E40B54020000CA9A3B000000E1F505A1
:1000A000000080969800000040420F000000A086EB
:1000B00001000000102700000000E803000000001D
:1000C0006400000000000A000000000001000000C1
:1000D00000002C76D888DC674F0823DFC1DFAE59DB
:1000E000E1B1B796E5E3E453C63AE651997696E86E
:1000F000E6C28426EB898C9B62ED407C6FFCEFBCF2
:100100009C9F40F2BAA56FA5F490055A2AF75C931C
:100110006B6CF9676DC11BFCE0E40D47FEF520E652
:10012000B500D0ED902E0300943577050080841E35
:10013000080000204E0A000000C80C333333330F90
:10014000986E12831141EF8D2114893BE65516CF2D
:10015000FEE6DB18D1844B381BF77C1D901DA4BB39
:10016000E424203284725E228100C9F124ECA1E5EE
:100170003D276364696E6F70737578585B000D0A74
:10018000000D0A002072657300636F72652072654E
:1001900073657420000D0A00207265730072657328
:1001A000657420002063302000206331200020721D
:1001B00030200020723120002E2E2E002072657318
:1001C000002E2E2E0020726573002E2E2E0020721F
:1001D0006573002E2E2E002063726573002E2E2E66
:1001E000002063726573002E2E2E0020726573004E
:1001F000206661696C65640D0A00206F6B0D0A0052
:100200002063616C63206372633A2000554D413A6C
:10021000206D6D63206372633A2000206661696C13
:1002200020777269746520636D640D0A00554D4135
:100230003A20726561647920616674657220726526
:1002400074726965733A20006D6D635F696E6974DD
:10025000204572726F720043617264547970652038
:100260003A0020002000200020004F4352203A0096
:1002700020616674657220726574726965733A20D4
:1002800000554D413A2072657475726E3A200055E2
:100290004D413A2073656E6420636D640D0A002041
:1002A0003A2000554D413A206D6D6320636D643AEC
:1002B00020002A2A20496E697420646F6E65202A06
:1002C0002A0D0A002A2A20427574746F6E20496E26
:1002D000697420646F6E65202A2A0D0A002A2A207C
:1002E000554152542D496E697420646F6E65202A01
:1002F0002A0D0A0041004200430044004500460028
:100300004700480049004A004B004C004D004E0099
:100310004F00500051005200530054005500560049
:100320005700580059005A002100E0FFE1FFE5FFA7
:10033000E2FFE3FFC000C100C200C300C400C5006B
:10034000C600C700C800C900CA00CB00CC00CD0061
:10035000CE00CF00D000D100D200D300D400D50011
:10036000D600D800D900DA00DB00DC00DD00DE00BA
:100370007801000102010401060108010A010C01D3
:100380000E01100112011401160118011A011C01BD
:100390001E01200122012401260128012A012C012D
:1003A0002E01300132013401360139013B013D019A
:1003B0003F0141014301450147014A014C014E0102
:1003C000500152015401560158015A015C015E016D
:1003D000600162016401660168016A016C016E01DD
:1003E000700172017401760179017B017D01910137
:1003F0009103920393039403950396039703980341
:1004000099039A039B039C039D039E039F03A003F0
:10041000A103A303A403A503A603A703A803A90399
:10042000AA0310041104120413041404150416047E
:100430001704180419041A041B041C041D041E04C8
:100440001F04200421042204230424042504260478
:100450002704280429042A042B042C042D042E0428
:100460002F04010402040304040405040604070421
:10047000080409040A040B040C040E040F04602190
:100480006121622163216421652166216721682140
:1004900069216A216B216C216D216E216F2121FF61
:1004A00022FF23FF24FF25FF26FF27FF28FF29FF28
:1004B0002AFF2BFF2CFF2DFF2EFF2FFF30FF31FFD8
:1004C00032FF33FF34FF35FF36FF37FF38FF39FF88
:1004D0003AFF00006100620063006400650066008E
:1004E0006700680069006A006B006C006D006E00B8
:1004F0006F00700071007200730074007500760068
:100500007700780079007A00A100A200A300A5007E
:10051000AC00AF00E000E100E200E300E400E50031
:10052000E600E700E800E900EA00EB00EC00ED007F
:10053000EE00EF00F000F100F200F300F400F5002F
:10054000F600F800F900FA00FB00FC00FD00FE00D8
:10055000FF00010103010501070109010B010D0164
:100560000F01110113011501170119011B011D01D3
:100570001F01210123012501270129012B012D0143
:100580002F0131013301350137013A013C013E01B0
:10059000400142014401460148014B014D014F0118
:1005A000510153015501570159015B015D015F0183
:1005B000610163016501670169016B016D016F01F3
:1005C00071017301750177017A017C017E0192014D
:1005D000B103B203B303B403B503B603B703B8035F
:1005E000B903BA03BB03BC03BD03BE03BF03C0030F
:1005F000C103C303C403C503C603C703C803C903B8
:10060000CA0330043104320433043404350436049C
:100610003704380439043A043B043C043D043E04E6
:100620003F04400441044204430444044504460496
:100630004704480449044A044B044C044D044E0446
:100640004F045104520453045404550456045704EF
:10065000580459045A045B045C045E045F0470216E
:1006600071217221732174217521762177217821DE
:1006700079217A217B217C217D217E217F2141FFEF
:1006800042FF43FF44FF45FF46FF47FF48FF49FF46
:100690004AFF4BFF4CFF4DFF4EFF4FFF50FF51FFF6
:1006A00052FF53FF54FF55FF56FF57FF58FF59FFA6
:1006B0005AFF0000C700FC00E900E200E400E0008F
:1006C000E500E700EA00EB00E800EF00EE00EC00D8
:1006D000C400C500C900E600C600F400F600F20040
:1006E000FB00F900FF00D600DC00F800A300D800F2
:1006F000D7009201E100ED00F300FA00F100D10013
:10070000AA00BA00BF00AE00AC00BD00BC00A10052
:10071000AB00BB0091259225932502252425C1001D
:10072000C200C000A9006325512557255025A2000D
:10073000A5001025142534252C251C2500253C2535
:10074000E300C3005A2554256925662560255025F8
:100750006C25A400F000D000CA00CB00C800AC207B
:10076000CD00CE00CF0018250C2588258425C60095
:10077000CC008025D300DF00D400D200F500D500E6
:10078000B500FE00DE00DA00DB00D900FD00DD0070
:10079000AF00B400AD00B1001720BE00B600A70046
:1007A000F700B800B000A800B700B900B300B2006D
:1007B000A025A00020666C61736865642E0A0D0098
:1007C00046696C65200020646F6E65202E2E2E0A0F
:1007D0000D00204B420D00462D77726974696E67DB
:1007E0002020307800646F6E650A0D00464C6173FE
:1007F000683A2065726173696E67202E2E2E200084
:100800004572726F723A20556E61626C6520746F2A
:1008100020726561643A2000200020637265617473
:1008200065642E0A0D0046696C6520000A0D646F30
:100830006E65202E2E2E0A0D00204B420D00462DF7
:1008400072656164696E6720203078004572726F4E
:10085000723A20556E61626C6520746F2063726518
:100860006174653A20002000200030003100203AF9
:10087000200041532D5374617475733A2000204257
:100880007974650053697A653A203078002A2A2005
:10089000756E6B6E6F776E202A2A00455043533673
:1008A00034004550435351333200455043533136A1
:1008B000004550435334004550435331002000530A
:1008C000696C69636F6E2D49443A2000466978650A
:1008D0006420506172616D657465723A206C656E5A
:1008E0002C207573696E67206C656E3D20003E009C
:1008F0003C004572726F723A20556E61626C6520E1
:10090000746F206F70656E3A20002D2D2D2D2D2DCA
:100910002D2D2D2D2D2D0A0D00202D2D20002A2AC4
:100920002059482D465047412D5368656C6C202A4C
:100930002A0D0A00434D443A206361740D0A0043B6
:100940004D443A206865780D0A00202A2000202AAC
:100950002000506172616D657465723A2000202A32
:100960002000506172616D657465723A20005061BB
:1009700072616D657465723A2000202D2D20006D26
:10098000697373696E6720706172616D65746572F9
:100990003A20002000506172616D657465723A20E2
:1009A000002000436F6D6D616E643A200000520CB0
:1009B000772E480C00420C742E350C00300C713A26
:1009C000240C011E0CBC2E0A0C01040CE82EF40BA6
:1009D00001ED0B6839DF0B00DC0B372FC60B01C2B2
:1009E0000B692FB80B01B40B3A2FA70B01A40B51C5
:1009F00031950B01910B620C820B017D0B9F0C69F1
:100A00000B01610BB32D500B01470BEA2D280B0096
:100A10001F0BF02D0E0B00060BE13DF60A03EF0A4B
:100A2000463CD60A02CE0A1B3DB60A02AF0A693B13
:100A30009D0A019A0AFB3D8A0A02820A1A3F6A0A43
:100A400000000000000000000000000000000000A6
:100A50000000000000000000000000000000000096
:100A600000000000000000000000722D7772697421
:100A700065206F66667365742066726F6D66696C5B
:100A80006500722D777269746500736420726177F6
:100A9000696D61676566696C6500736400662D64E5
:100AA000756D70206F6666736574206C656E006688
:100AB0002D64756D7000662D7772697465206F66A0
:100AC000667365742066726F6D66696C6500662D6D
:100AD000777269746500662D72656164206F666661
:100AE000736574206C656E20746F66696C65006652
:100AF0002D7265616400657261736520544F532DDA
:100B0000466C61736800662D657261736500436FA2
:100B10006E666967466C61736820496E666F006136
:100B2000732D6765746964007772697465202E722D
:100B300062662066696C6520746F20436F6E66691B
:100B400067466C6173680061732D77726974650024
:100B50007265616420436F6E666967466C61736895
:100B60000061732D72656164006372657320636F49
:100B7000726572657365746C6576656C0063726529
:100B800073007265732072657365746C6576656C4D
:100B900000726573006578656320626174636866DE
:100BA000696C6500646F0068657864756D702066B7
:100BB000696C65006865780073686F772066696C9A
:100BC0006500636174006C697374205344436172FF
:100BD00064204469726563746F7279006C7300708D
:100BE000757A7A6C6520726F756E64730070757AB1
:100BF0007A6C6500776169742064656C74696D65F1
:100C0000206D730064656C617900656E61626C656E
:100C10002044656275672054726163657300747265
:100C20006163650053797374656D20496E666F006A
:100C3000696E666F006D6F756E7420534443617208
:100C40006400726573657400746869732054657814
:100C5000740068656C7000667067612D7368656C00
:100C60006C3A3E20004572726F723A200059482D4E
:100C7000667067612D7368656C6C3A3E20002A2AA5
:100C80002A205375736B612D4949492D43204650E5
:100C900047412D5368656C6C202A2A2A0D0A0046AC
:100CA0005047412044656661756C7420696E6974B3
:100CB0002D46696C652028696E69742E74787429D4
:100CC000206661696C65640D0A0020667265733D7B
:100CD000004572726F723A20556E61626C652074C5
:100CE0006F206F70656E3A20002000203A2000458A
:100CF00072726F723A20556E61626C6520746F205B
:100D00006F70656E3A2000204B420D0046522D77E1
:100D1000726974696E67202030780020646F6E6598
:100D20000A0D00773A2000723A20000A0D736565BB
:100D30006B206661696C65640A0D000A0D696C6C54
:100D40006567616C207265713A20000A0D657869EB
:100D50007420436D640A0D005245510A0D007761FD
:100D60006974202E2E2E2000204B420D0054462D5B
:100D700077726974696E672020307800204B420DCD
:100D80000054462D72656164696E672020307800DA
:100D9000465047412D56657273696F6E3A2000299F
:100DA0002000556E6B6E6F776E20436F7265004D3D
:100DB000756C7469636F6D70205A3830004F6C64C5
:100DC00020436F726520776974686F757420747939
:100DD000706500756E6B6E6F776E004156520054F1
:100DE000657374436F72652000756E6B6E6F776EFE
:100DF00000537061636520496E76616465727300AB
:100E000041726361646520002046414C434F4E208F
:100E1000005375736B612D4949492D43002053548C
:100E20004520005375736B612D4949492D430020BE
:100E300028002000465047412D436F726574797039
:100E4000653A200041544D4547412D5665727369FE
:100E50006F6E3A2000534443206F6E6C7900534408
:100E600043206F722046424F4F5400424F4F54412F
:100E700056523A2000756E6B6E6F776E005746368D
:100E8000384B303000574636384B313000574636F5
:100E9000384B333000574636384B33304C00112432
:100EA0001FBECFEFD0E1DEBFCDBF14E0A0E0B1E0C8
:100EB000E2E7F7E902C005900D92A037B107D9F734
:100EC00028E0A0E7B4E001C01D92A03FB207E1F71F
:100ED0000E94F9430C94B74B0C940000909371045A
:100EE00080937004F8941092800028E02093810091
:100EF0008130910531F18436910509F440C0883E76
:100F0000934009F45AC080918100856080938100EC
:100F10008BE990E090938900809388008AE090E0CC
:100F2000A0E0B0E080937A0490937B04A0937C04CB
:100F3000B0937D0480916F00826080936F007894FD
:100F40000895809181008460809381008DE390E01A
:100F5000909389008093880081E090E0A0E0B0E069
:100F600080937A0490937B04A0937C04B0937D04D7
:100F700080916F00826080936F00789408958091D3
:100F8000810085608093810089E196E090938900DB
:100F90008093880084E690E0A0E0B0E080937A043B
:100FA00090937B04A0937C04B0937D0480916F00A8
:100FB000826080936F0078940895809181008560AD
:100FC0008093810088E09DE390938900809388005E
:100FD00088EE93E0A0E0B0E080937A0490937B04E5
:100FE000A0937C04B0937D0480916F008260809315
:100FF0006F0078940895CF92DF92EF92FF92C090A5
:101000007604D0907704E0907804F09079042091F1
:101010007A0430917B0440917C0450917D040E94BD
:101020009945BA01A9014C0D5D1D6E1D7F1D809172
:10103000760490917704A0917804B0917904841794
:101040009507A607B70798F3FF90EF90DF90CF9032
:1010500008950C94FB071F920F920FB60F92112464
:101060008F939F93AF93BF93809176049091770471
:10107000A0917804B09179040196A11DB11D8093CF
:10108000760490937704A0937804B09379048091C8
:10109000720490917304A0917404B0917504892B2B
:1010A0008A2B8B2B99F08091720490917304A091FC
:1010B0007404B09175040197A109B1098093720479
:1010C00090937304A0937404B0937504BF91AF918F
:1010D0009F918F910F900FBE0F901F901895409188
:1010E000720450917304609174047091750481E0EE
:1010F000452B462B472B09F080E00895609372043E
:1011000070937304809374049093750408952091F0
:101110007004309171042115310539F040E050E040
:101120000E949945CA01B901089560E070E0CB01C1
:1011300008951092C5008093C40086E08093C20099
:1011400088E18093C10008959093C5008093C40006
:1011500008959FB7F8948091C10080688093C10082
:101160008091C6008091C00087FDFACF80EC80930B
:10117000C0009FBF42E364E075E086E395E00E9413
:10118000190A789408951F920F920FB60F921124A6
:101190002F933F934F938F939F93EF93FF934091A0
:1011A000C60090913605809137059817D0F4E091EC
:1011B0003A05F0913B059F012F5F3F4F408380919F
:1011C0003D058150D1F080933D0530933B05209340
:1011D0003A059FB7F894809136058F5F8093360566
:1011E0009FBFFF91EF919F918F914F913F912F91D1
:1011F0000F900FBE0F901F90189580913705281BF8
:101200003109E1CF86E395E00C943D0A86E395E051
:101210000C94230A9091C00095FFFCCF8093C600E8
:101220000895CF93C82F8A3039F08C2F0E940A0975
:1012300080E090E0CF9108958DE00E940A098C2F04
:101240000E940A0980E090E0CF910895CF93DF9348
:10125000EC01FC018491882339F00E940A0921964F
:10126000FE0184918111F9CFDF91CF910895CF9341
:10127000DF93EC018881882331F021960E940A09CE
:1012800089918111FBCFDF91CF9108958A3018F4B5
:10129000805D0C940A09895C0C940A09CF93C82FCD
:1012A00082958F700E9446098C2F8F70CF910C947D
:1012B0004609CF93C82F892F0E944E098C2FCF91BA
:1012C0000C944E09CF92DF92EF92FF926B017C015A
:1012D000C7010E945909C601FF90EF90DF90CF909F
:1012E0000C945909CF93C82F8436B0F08CE98C0F39
:1012F0008436A0F0C85C82E30E940A0980E3CA3009
:1013000020F08F5FCA50CA30E0F70E940A0980E3DC
:101310008C0FCF910C940A0980E3EECFC82F81E3A4
:10132000EBCF8EE791E00C942609EF92FF920F939A
:101330001F93CF93DF937C01D62FC0E000E010E035
:1013400008C0CF5F0C2F10E0F701E00FF11FCD17A1
:10135000F0F486E395E00E943D0AF701E00FF11FEB
:101360008F3F2FEF920799F080838D3081F08A3084
:1013700071F0883031F7CC2399F01082C1500C2FD6
:1013800010E0F801EE0DFF1D1082CD1710F3108252
:101390008C2FDF91CF911F910F91FF90EF900895C7
:1013A000E0E0F0E0EFCF0F931F93CF93DF938C013A
:1013B000D62FC0E00DC0F801EC0FF11D80838D30F9
:1013C00049F18A3039F18830A9F0CF5FCD17F8F4B0
:1013D00086E395E00E943D0A8F3F2FEF920759F771
:1013E000C111F4CFF80110828C2FDF91CF911F91A2
:1013F0000F910895CC2341F01082C150EC2FF0E002
:10140000E00FF11F1082E2CFE0E0F0E0F9CFF80149
:10141000EC0FF11D10820D9739F7C111E5CF8DE06A
:10142000F801808311828C2FDF91CF911F910F9152
:101430000895FC0110827583648373836283418302
:10144000478346830895FC0190819923E9F3A281A3
:10145000B3819D012F5F3F4F8C919681915019F47C
:101460009181291B31093383228396832FB7F89406
:101470009081915090832FBF0895FC018081882333
:10148000B9F0A281B3819D012F5F3F4F8C9196816E
:10149000915019F49181291B31093383228396835A
:1014A0002FB7F8949081915090832FBF90E00895CA
:1014B0008FEF9FEF0895CF93DF93EC01C11580E884
:1014C000D807E9F0CE01D7FD1FC010928404E4E8EC
:1014D000F4E02AE030E0B9010E948545805D829306
:1014E000CB010097C1F7D7FD04C0CF01DF91CF91A9
:1014F00008958DE28293CF01DF91CF9108958EEE12
:1015000091E0DF91CF910895882799278C1B9D0B3F
:10151000DCCFFC0190819D3249F19B3261F161E0A9
:1015200070E080ED890F8A3058F5319620E030E088
:10153000A901440F551F220F331F220F331F220F03
:10154000331F420F531F292F30E020533109240F3E
:10155000351F919180ED890F8A3050F3269FC0018D
:10156000279F900D369F900D1124089591813196FB
:101570006FEF7FEFD6CF9181319661E070E0D1CFF0
:1015800080E090E008958A3010F4805D0895895CD1
:1015900008951F93CF93DF93182F82958F700E9429
:1015A000C30ACAE8D4E08883812F8F700E94C30ADF
:1015B00089831A82CE01DF91CF911F9108950F93F5
:1015C0001F93CF93DF938C01812F82958F700E94A0
:1015D000C30AC5E8D4E08883C80188279F70892F93
:1015E0000E94C30A8983C801807F992792958295BA
:1015F0008F7089279F7089270E94C30A8A83802F52
:101600008F700E94C30A8B831C82CE01DF91CF9121
:101610001F910F9108958F929F92AF92BF92FF9268
:101620000F931F93CF93DF934B015C0110929404AF
:1016300020E030E0A9010E946F4487FD7BC0F12CBF
:1016400020E030E048EC52E4C501B4010E94F044CF
:101650000E9474444B015C0124E630E040E050E01D
:101660000E9499452DEC629F212D112426952695E7
:101670002695462F3AE0239F40191124463008F45E
:1016800047C02AE030E040E050E00E949945293010
:1016900009F057C084E6880E911CA11CB11C20E300
:1016A000209393048EE280939204C501B40124E652
:1016B00030E040E050E00E949945CA01B901232B77
:1016C000242B252B89F101E914E02AE0822E912CAC
:1016D000A12CB12C01C08E01E8012197A501940134
:1016E0000E949945605D6983B901CA016115710560
:1016F0008105910581F7F11013C0C801DF91CF91E9
:101700001F910F91FF90BF90AF909F908F90089581
:101710002AE030E040E050E00E949945205DC0CFD3
:101720008DE288838E01E9CF80E38093910401E903
:1017300014E0E3CFB7FAB094B7F8B094FF24F39471
:101740007FCF2F5CADCF813019F0E8F08230A9F067
:1017500080917C00806C80937C0080917A0087600F
:1017600080937A0080917C00807E80937C008091C1
:101770007A00806880937A00089580917C008F734E
:1017800080937C00EACF80917C008F73806480938B
:101790007C00E3CFECE7F0E09081907E892B8083A2
:1017A000089580917A0086FB882780F991E0892747
:1017B000089580917800909179000895429A83EB82
:1017C00091E00C942609419A89EA91E00C9426094B
:1017D000419A429A399A3A9A08958BEE91E00E9482
:1017E000260942988EEA91E00E94260987EE91E050
:1017F0000E94260964EF71E080E090E00E942908D1
:1018000081EE91E00E942609419884EA91E00E94CD
:1018100026098DED91E00E94260964EF71E080E0D9
:1018200090E00E94290887ED91E00E9426090E941D
:10183000E30B83ED91E00E94260964EF71E080E004
:1018400090E00E9429088EEC91E00E9426090E94F7
:10185000DE0B8AEC91E00E94260964EF71E080E0E3
:1018600090E00E94290885EC91E00E9426094298A8
:101870008EEA91E00E94260981EC91E00E942609FF
:1018800064EF71E080E090E00E9429088CEB91E029
:101890000E9426090E94DE0B88EB91E00C94260939
:1018A000811105C042988EEA91E00C9426090C94AF
:1018B000DE0B811105C0419884EA91E00C94260961
:1018C0000C94E30BCF93DF931F92CDB7DEB79E014D
:1018D0002F5F3F4F3F932F9325EF31E03F932F939F
:1018E0009F938F930E9425488DE991E00E942609DD
:1018F0005B9889810F900F900F900F900F900F9031
:10190000823059F00E94500C5B9A85E991E00E9468
:1019100026090F90DF91CF91089588E991E00E9408
:10192000260942988EEA91E00E94260964EF71E050
:1019300080E090E00E9429080E94DE0BE5CFCF9363
:10194000DF931F92CDB7DEB79E012F5F3F4F3F93CE
:101950002F9325EF31E03F932F939F938F930E9416
:10196000254889E891E00E9426095B9889810F90BB
:101970000F900F900F900F900F90823059F00E94AF
:10198000590C5B9A81E891E00E9426090F90DF9143
:10199000CF91089584E891E00E942609419884EA55
:1019A00091E00E94260964EF71E080E090E00E94DF
:1019B00029080E94E30BE5CF84B18C6084B90895B7
:1019C000282F98E080E015C02B98880F1C99816023
:1019D0000000000000002A9A000000000000220F12
:1019E0000000000000002A98000000000000915054
:1019F00021F027FFE9CF2B9AE8CF08958091950435
:101A000008952F9A279A08951F93CF93DF938FEF0E
:101A10000E94E00CC4EFD1E002C0219730F08FEFBC
:101A20000E94E00C182F8F3FC1F780910E0190911A
:101A30000F01A0911001B09111010397A105B1050B
:101A400058F08DE292E00E942609CE010E945B0AC6
:101A50000E9437090E949109812FDF91CF911F9138
:101A60000895CF92DF92EF92FF920F931F93CF933F
:101A7000C82F6A017B0180910E0190910F01A09106
:101A80001001B09111010397A105B10588F4C7FDBC
:101A900031C02F9A2F980E94040D8F3FA9F18FEF2C
:101AA000CF911F910F91FF90EF90DF90CF9008950D
:101AB00083EA92E00E9426098C2F0E944E098FE94A
:101AC00092E00E94260900E010E0D701C601002E36
:101AD00004C0B695A795979587950A94D2F70E946A
:101AE0004E09085F1F4F0032110579F70E949109D6
:101AF000C7FFCFCF40E050E0BA0187E70E94310D29
:101B0000823070F6CF77C5CF80910E0190910F0192
:101B1000A0911001B09111010397A105B10508F042
:101B20004FC08C2F0E94E00C8F2D0E94E00C8E2D58
:101B30000E94E00C8D2D0E94E00C8C2D0E94E00C88
:101B4000C03409F446C0C83409F43FC081E00E94A3
:101B5000E00CCC3489F104EF11E003C0015011090D
:101B600031F08FEF0E94E00CC82F87FDF7CF8091F6
:101B70000E0190910F01A0911001B09111010397F6
:101B8000A105B10510F48C2F8BCF81E892E00E9463
:101B900026098C2F90E00E945B0A0E94370980E79B
:101BA00092E00E942609C8010E945B0A0E94370940
:101BB0000E9491098C2F74CF8FEF0E94E00CCBCF45
:101BC0008FE892E00E942609ACCF87E80E94E00CE3
:101BD000C2CF85E90E94E00CBECF8F929F92AF9258
:101BE000BF92CF92DF92FF920F931F93CF93DF9319
:101BF00000D000D0CDB7DEB72F9A279A2FEF81EE15
:101C000094E0215080409040E1F700C000001FE0C8
:101C10008FEF0E94E00C1150D9F7EFEFF1EE24E0C6
:101C2000E150F0402040E1F700C0000000E010E08B
:101C300009C08FEF90E7E2E081509040E040E1F78B
:101C400000C0000040E050E0BA0180E40E94310D85
:101C5000F82EF1E08F1739F10F5F1F4F0C3011058F
:101C600041F7109295042F9A80910E0190910F01E7
:101C7000A0911001B09111010397A105B10508F0E1
:101C8000B8C0F12C8F2D0F900F900F900F90DF9117
:101C9000CF911F910F91FF90DF90CF90BF90AF90A9
:101CA0009F908F9008954AEA51E060E070E088E4E8
:101CB0000E94310D813009F440C040E050E0BA018B
:101CC00089EE0E94310D823008F4A0C0CC24C39468
:101CD00091E4D92E09C040E050E0BA018D2D0E9458
:101CE000310D882309F48DC00F5F1F4F093EF3E0CB
:101CF0001F0789F740E052E060E070E080E50E9455
:101D0000310D8111AECFC09295042F9A80910E01B2
:101D100090910F01A0911001B09111010397A105BD
:101D2000B10508F4AFCF87E592E00E9426098C2D1B
:101D30000E944E090E949109A5CFCE0101964C0147
:101D40005E0195E0A90EB11C64018FEF0E94E00CCA
:101D5000F60181936F01AE16BF06B9F78B81813012
:101D600009F07FCF8C818A3A09F07BCF0F5F1F4F3C
:101D700010C0FFEF20E782E0F15020408040E1F703
:101D800000C000000F5F1F4F053F91E0190709F4E5
:101D900068CF40E050E060E070E489EE0E94310DD1
:101DA0008111E7CF043F114008F05BCF40E050E0E5
:101DB000BA018AE70E94310D811153CF8FEF0E9443
:101DC000E00CF40181934F01AE16BF06B9F7809184
:101DD0000E0190910F01A0911001B0911101039794
:101DE000A105B105D8F4198116FD15C044E0C42E33
:101DF0008ACF88E492E00E9426090E949109F12C82
:101E000041CF083E134009F42CCF74CF22E0C22EFC
:101E100039EED32E69CF8CE0C82E75CF8AE692E0DA
:101E20000E9426091981812F0E944E0988E692E0BE
:101E30000E9426098A810E944E0986E692E00E944D
:101E400026098B810E944E0984E692E00E942609B1
:101E50008C810E944E0982E692E00E9426090E942F
:101E60009109C2CFCF92DF92EF92FF920F931F930F
:101E7000CF93DF937A012091950423FD07C029E0D9
:101E8000660F771F881F991F2A95D1F7AB01BC01F8
:101E900088E50E94310D882349F0DF91CF911F9191
:101EA0000F91FF90EF90DF90CF9008950E94040D66
:101EB0008F3F11F081E0F1CF8EEF0E94E00C87019F
:101EC0008EEFF81A6801F80181918F010E94E00CF1
:101ED000F6012081CE019227092E0294202D2F7029
:101EE0002927392F3025330F307E2327302D3927EE
:101EF000307F3695092E000C331F96959695969552
:101F00009F7193279827822FEC010E151F0509F06A
:101F1000D9CF8D2F0E94E00C8C2F0E94E00C8FEF08
:101F20000E94E00C8F71853009F0C4CF8FEF0E94C2
:101F3000E00C8F3FD9F72F9A80E0AFCFCF92DF929E
:101F4000EF92FF920F931F93CF93DF93F42ED52F31
:101F50002091950423FD07C029E0660F771F881F95
:101F6000991F2A95D1F7AB01BC0181E50E94310D83
:101F7000C82F882379F080910E0190910F01A091D4
:101F80001001B09111010397A105B10508F063C0DC
:101F90008C2F58C08FEF0E94E00C8E3FD9F70F2D89
:101FA0001D2F68018EEFD81AE12CF12C8FEF0E94C3
:101FB000E00CF80181938F01E701D8270D2E0294E0
:101FC000802D8F708D279D2F9025990F907E8927CA
:101FD000902D9D27907F96950D2E000C991FD695DC
:101FE000D695D695DF71D927DC27C82F7E01EC1551
:101FF000FD05E1F68FEF0E94E00C082F10E0102F96
:1020000000278FEF0E94E00C082B80910E01909129
:102010000F01A0911001B09111010497A105B10524
:1020200000F52F9A80910E0190910F01A09110015F
:10203000B09111010C171D0749F10397A105B105D6
:1020400058F581E0DF91CF911F910F91FF90EF90B4
:10205000DF90CF9008958BE192E00E9426098C2FAB
:10206000F1CF8CE092E00E942609812F0E944E0958
:10207000802F0E944E0980E092E00E9426098F2D59
:102080000E944E098C2F0E944E09CBCF0497A105C8
:10209000B10540F480E0D6CF80EF91E00E942609A0
:1020A00081E0D0CF8AEF91E00E94260980E0CACF7C
:1020B0007F928F929F92AF92BF92CF92DF92EF92D8
:1020C000FF920F931F93CF93DF93CDB7DEB7609747
:1020D0000FB6F894DEBF0FBECDBF00910E01109178
:1020E0000F012091100130911101053011052105DA
:1020F000310508F45AC06115710509F43FC04B0160
:102100005C01C12CD12C10E08EE2782E80E20E947E
:102110000A09F50180810E944E09F50181915F0154
:1021200090EE980FE12EF12CE1E0F0E0EC0FFD1FB6
:10213000EE0DFF1D9F35B8F580831F5FFFEFCF1AAF
:10214000DF0AC6018F709927892BA9F4112381F02A
:102150008E010F5F1F4F8FEFE81AF80AE00EF11E95
:10216000F80181918F010E940A09E016F106C1F77A
:102170000E94910910E08C149D0441F660960FB600
:10218000F894DEBF0FBECDBFDF91CF911F910F91AD
:10219000FF90EF90DF90CF90BF90AF909F908F9087
:1021A0007F900C9491097082C8CF60960FB6F89416
:1021B000DEBF0FBECDBFDF91CF911F910F91FF907A
:1021C000EF90DF90CF90BF90AF909F908F907F90D7
:1021D00008950E94ED0D882321F01092960480E06E
:1021E000089583E08093960408958091960408955D
:1021F000FB01CA01B901AF010E949E0F90E0089552
:10220000FB01CA01B901AF010E94320F90E00895AD
:102210000F931F93CF93DF938A012F986623A9F022
:102220006A3039F40E94FE0CF8018083C0E0D0E0EF
:1022300002C0C4E0D0E02F9A8FEF0E94E00CCE01E4
:10224000DF91CF911F910F9108950E94040D8F3F50
:1022500091F7ECCF4F925F926F927F92AF92BF92C5
:10226000CF92DF92EF92FF920F931F93CF93DF9362
:10227000FC01C2A4D3A4E4A4F5A4C416D506E606C2
:10228000F70659F02A013B01EC018481811126C037
:10229000411451046104710489F480E090E0DF91FD
:1022A000CF911F910F91FF90EF90DF90CF90BF9053
:1022B000AF907F906F905F904F90089501E0A301E1
:1022C0009201BE01625D7F4F89810E94F810892BC7
:1022D000E1F54AA65BA66CA67DA6DFCF5F01FEE214
:1022E000AF0EB11C01E0A7019601B50189810E94E2
:1022F0000011892B51F51C828E899F89A88DB98D7B
:102300004E8D5F8D68A179A1480F591F6A1F7B1FF1
:10231000C416D506E606F70608F0BACF1B811230C0
:1023200028F4B6CF8E899F89A88DB98DC80ED91E85
:10233000EA1EFB1E01E0A7019601B50189810E94FA
:1023400000111150113071F7A3CF81E090E0A7CFB9
:102350000F93CF93DF93EC019A01AB01BC01625D57
:102360007F4F01E089810E94F810892B29F083E0DA
:10237000DF91CF910F910895FE01E45DFD4F8081C3
:10238000918185359A4A29F082E0DF91CF910F91B2
:102390000895E85CF14080819181A281B381BB27DF
:1023A00086349144A445B10569F0C058DF4F488197
:1023B00059816A817B81772781E0463451446445A5
:1023C0007105B1F680E0D4CFFC0181810E94F51047
:1023D00080FF03C083E090E0089580E090E00895DE
:1023E0007F928F929F92AF92BF92CF92DF92EF92A5
:1023F000FF920F931F93CF93DF93EC016A017B0150
:102400008E8C9F8CA8A0B9A08881823009F475C0F9
:10241000833009F44FC0813089F06FEF7FEFCB013B
:10242000DF91CF911F910F91FF90EF90DF90CF90B0
:10243000BF90AF909F908F907F9008958A011695DE
:1024400007950C0D1D1DC801892F99278695B5018B
:10245000A401480F591F611D711DCE010E942A1150
:10246000892BD9F6F801F170EC0FFD1F76A40F5FF0
:102470001F4FC801892F99278695B501A401480FE0
:10248000591F611D711DCE010E942A11892B29F649
:102490001170C00FD11F8EA5672D70E0782BC0FE84
:1024A00047C0729562956F7067277F70672780E0DD
:1024B00090E0B6CF97E076956795579547959A95B2
:1024C000D1F7480D591D6A1D7B1DCE010E942A11AE
:1024D000892B09F0A2CFCC0CDD1CCC0CDD1C8CEFC1
:1024E000C82281E0D822CC0DDD1D8EA59FA5A8A90C
:1024F000B9A9BC01CD019F7093CF452F562F672FEF
:102500007727480D591D6A1D7B1DCE010E942A1197
:10251000892B09F082CFCC0CDD1CE894C0F881E057
:10252000D822CC0DDD1D6EA57FA580E090E078CF90
:102530007F7080E090E074CFAF92BF92CF92DF9235
:10254000EF92FF920F931F93CF93DF938C01EB01D8
:10255000DC0115967C936E93149716964D915D91C0
:102560006D917C911997413051056105710569F0B4
:10257000FC01A080B180F501828D938DA48DB58D75
:10258000481759076A077B0768F082E090E0DF91FF
:10259000CF911F910F91FF90EF90DF90CF90BF9060
:1025A000AF900895411551056105710509F048C0C6
:1025B00020812330D9F1D8011A961D921D921D92C7
:1025C0001C921D97F50180859185C817D907E8F6FB
:1025D00082A193A1A4A1B5A19E01329522952F704D
:1025E00023273F702327AC01BD01420F531F611DFC
:1025F000711DD8011E964D935D936D937C935197F9
:10260000F501BE96CF70DD27CC0FDD1FC295D295A8
:10261000D07FDC27C07FDC27EC0FFD1FD80153964D
:10262000FC93EE93529780E090E0B1CF42A153A18A
:1026300064A175A1411551056105710509F4BBCF70
:10264000F501E280F0E1EF9E70011124CE15DF0567
:1026500030F537C0C5010E94F011AB01BC014F3FFE
:10266000FFEF5F076F077F0709F45EC04230510537
:102670006105710508F489CFD801AD90BC90F501D2
:10268000828D938DA48DB58D481759076A077B07F6
:1026900008F07BCFCE19DF09CE15DF0590F0423070
:1026A00051056105710508F470CFF501828D938D98
:1026B000A48DB58D481759076A077B0708F065CFC9
:1026C000C9CFF80142875387648775879A01AB01A8
:1026D00022503109410951090297A109B10928176E
:1026E00039074A075B0718F5F501A281B0E00E949F
:1026F000E945C6A0D7A0E0A4F1A4DC01CB018C0D74
:102700009D1DAE1DBF1D9E01329522952F70232762
:102710003F702327820F931FA11DB11DF8018687EB
:102720009787A08BB18B6CCF81E090E030CF80E0B9
:1027300090E0DC01E8CF2F923F924F925F926F9230
:102740007F928F929F92AF92BF92CF92DF92EF9241
:10275000FF920F931F93CF93DF9300D01F92CDB7BB
:10276000DEB79B838A836A017B0148015901FC0122
:10277000468C578C60A071A0F081F983F23009F487
:1027800088C0F33009F461C0F130E9F002E010E0F4
:1027900081E0EA81FB818483C8010F900F900F9044
:1027A000DF91CF911F910F91FF90EF90DF90CF902D
:1027B000BF90AF909F908F907F906F905F904F9061
:1027C0003F902F900895CA01969587951C012C0C77
:1027D0003D1CC101892F99278695B301A201480F9D
:1027E000591F611D711D8A819B810E942A118C01D4
:1027F000892B71F6F101F1708A819B81E80FF91F35
:10280000C0FE64C086A5282F2F7030E1839EC001D2
:102810001124822B86A771018FEFE81AF80A3981FB
:10282000EA81FB813483C701892F99278695B301FB
:10283000A201480F591F611D711DCF010E942A116D
:10284000009709F46AC08C01A3CF27E076956795BD
:10285000579547952A95D1F7440D551D661D771D4F
:102860008A819B810E942A118C01892B09F090CFCB
:10287000CC0CDD1CCC0CDD1C9CEFC92291E0D922D4
:10288000EA81FB81EC0DFD1D86A697A6A0AAB1AA40
:102890007FCF77276F2D5E2D4D2D440D551D661D65
:1028A000771D8A819B810E942A118C01892B09F056
:1028B0006FCFCC0CDD1CF601EE7FF170BE968A81E5
:1028C0009B81E80FF91F9182808262CF86A67101F9
:1028D0009FEFE91AF90A3981EA81FB813483C70144
:1028E000892F99278695B301A201480F591F611DB1
:1028F000711DCF010E942A11009709F0A4CF31E089
:10290000F322EA81FB81EE0DFF1D96A5907F892DB4
:102910008F70892E882A86A63BCFF1E0FF2284E0C3
:10292000B694A794979487948A95D1F7EA81FB810E
:10293000EE0DFF1D86A62CCF4F925F926F927F9275
:102940008F929F92AF92BF92CF92DF92EF92FF92BF
:102950000F931F93CF93DF9300D000D000D0CDB75B
:10296000DEB79E838D8349835A836B837C83DC012E
:102970005A964D905D906D907C905D97452B462BBF
:10298000472B09F072C01A968D909D90AD90BC9027
:102990001D9781149104A104B10409F08DC0812C0C
:1029A000912C540183947501640134C0A2E08A160D
:1029B0009104A104B10408F495C082E0C82ED12C82
:1029C000E12CF12CED81FE81828D938DA48DB58D4E
:1029D000C816D906EA06FB0668F5B701A601CF01BD
:1029E0000E94F011611571058105910509F46BC014
:1029F0006F3FFFEF7F078F079F0709F46FC06130BC
:102A0000710581059105B1F08C149D04AE04BF04DD
:102A100009F468C09FEFC91AD90AE90AF90AC4146F
:102A2000D504E604F70410F6B2E0CB16D104E104B5
:102A3000F10440F661E070E080E090E026960FB689
:102A4000F894DEBF0FBECDBFDF91CF911F910F91E4
:102A5000FF90EF90DF90CF90BF90AF909F908F90BE
:102A60007F906F905F904F90089529813A814B81BC
:102A70005C812230310541055105E0F289819A815E
:102A8000AB81BC8184159505A605B70598F6AC0108
:102A9000BD018D819E810E94F0116230710581051A
:102AA000910540F2641575058605970538F2898011
:102AB0009A80AB80BC8077CF84149504A604B704B9
:102AC00008F471CF6CCFED81FE81828D938DA48D42
:102AD000B58DC816D906EA06FB0640F06FEF7FEF0A
:102AE000CB01ACCF60E070E0CB01A8CF0FEF1FEFC0
:102AF0002FEF3FE0B701A601CF010E949B13892B66
:102B000069F729813A814B815C81232B242B252B6A
:102B1000F9F029813A814B815C81223031054105F0
:102B20005105E0F2ED81FE81828D938DA48DB58DEE
:102B3000281739074A075B0788F6970186014981FC
:102B40005A816B817C81CF010E949B13892B31F6C6
:102B5000AD81BE811A96CD92DD92ED92FC921D97C9
:102B6000FD0186859785A089B1898F3FFFEF9F077B
:102B7000AF07BF0759F00197A109B109ED81FE81A7
:102B800086879787A08BB18B81E08583C701B601CB
:102B900055CF2F923F924F925F926F927F928F927A
:102BA0009F92AF92BF92CF92DF92EF92FF920F93DC
:102BB0001F93CF93DF93DC011496CD91DC91159791
:102BC0002196A9F484E090E0DF91CF911F910F91BD
:102BD000FF90EF90DF90CF90BF90AF909F908F903D
:102BE0007F906F905F904F903F902F900895FC01E1
:102BF00086849784A088B18881149104A104B104CB
:102C000009F37B018C016E01FFE0CF22DD24C114AA
:102C1000D104D9F0DC01ED91FC91D8011596DC933B
:102C2000CE931497BE96CC0CDD1CC294D29480EF48
:102C3000D822DC24C822DC24EC0DFD1D5396FC9325
:102C4000EE93529780E090E0BFCFBFEF8B1A9B0AC4
:102C5000AB0ABB0AFC0186869786A08AB18A4285A8
:102C6000538564857585411551056105710511F11F
:102C70000190F081E02D828190E001979E013295D4
:102C800022952F7023273F70232782239323892B9C
:102C900021F6423051056105710548F0828D938D12
:102CA000A48DB58D481759076A077B0768F082E045
:102CB00090E08ACF0190F081E02D80859185C81742
:102CC000D90708F07FCFA9CFCF010E94F0114B01A7
:102CD0005C01623071058105910548F36F3F7F4FBC
:102CE0008F4F9F4F09F451C0D801ED91FC91428D57
:102CF000538D648D758D84169506A606B70670F5FE
:102D000024013501B2E04B1A510861087108D8015D
:102D10001A968D929D92AD92BC921D97DB01CA01CD
:102D20000297A109B109481659066A067B0680F583
:102D3000A281B0E0A30192010E94E94586A097A07C
:102D4000A0A4B1A4860E971EA81EB91ED8011E9677
:102D50008D929D92AD92BC9251975FCFEF2809F46E
:102D600031CFD8011A964D915D916D917C911D974F
:102D7000CF010E949C144B015C0161157105810516
:102D8000910551F487E090E01FCF81E090E01CCFE7
:102D9000812C912C5401DACF6130710581059105A8
:102DA00009F485CF6F3F7F4F8F4F9F4F71F340E006
:102DB00050E0BA01D8018D919C910E942A11892B73
:102DC00021F7F80180819181FC01BE96825D9D4FC3
:102DD0001192E817F907E1F7D801ED90FC90240172
:102DE0003501B2E04B1A510861087108F701828D74
:102DF000938DA48DB58D0297A109B1094816590686
:102E00006A067B0608F04CC0A281B0E0A3019201E3
:102E10000E94E94526A137A140A551A5DC01CB01BF
:102E2000820F931FA41FB51FF70182A793A7A4A722
:102E3000B5A7312C222423941EC0D70114962C92BE
:102E400040E050E0BA01F801808191810E942A118E
:102E5000892B09F09ACFD801ED90FC90F70182A55B
:102E600093A5A4A5B5A50196A11DB11D82A793A701
:102E7000A4A7B5A73394F70182813816F0F282A592
:102E800093A5A4A5B5A583199109A109B10982A7A4
:102E900093A7A4A7B5A7428D538D648D758D37CFA9
:102EA00080E090E0DC01C0CF2F923F924F925F9282
:102EB0006F927F928F929F92AF92BF92CF92DF924A
:102EC000EF92FF920F931F93CF93DF938C01BB245C
:102ED000BA9455245A94EE24EA94FE2C0DC02F3057
:102EE00009F466C055245A9460E070E0C8010E945D
:102EF000C915009709F049C0D8011E964D915D9102
:102F00006D917C9151978D919C910E942A1100970F
:102F1000E1F5F801C289D3899881992309F4A2C007
:102F20008B85282F2F73953EE9F283FDD8CF2F3064
:102F300009F43EC0511011C0FE0131969E01255F7B
:102F40003F4F80E001C0919180FB879587F9890F01
:102F50002E173F07C1F78B15B1F0D8015996FC9297
:102F6000EE9258975496ED91FC915597838580FD8C
:102F7000B9CF9E01255F3F4F999181919813B2CFB0
:102F80002C173D07C9F780E090E0DF91CF911F91AA
:102F90000F91FF90EF90DF90CF90BF90AF909F90F8
:102FA0008F907F906F905F904F903F902F900895FB
:102FB000D8015696CD90DC905797C114D10409F4EE
:102FC00093CF96FF4CC0BD849F7B592E14968D9154
:102FD0009C91159759969C938E9358974D844B10BE
:102FE00081CF88818F7B90E00197BDE0B89F400141
:102FF000B99F900C112426ECA22E21E0B22E21E0E4
:1030000081E090E00BC02F3F3F4FE9F5A2EDAA16FB
:10301000A1E0BA0651F1F50121915F01FE01E20F35
:10302000F11D20813181009771F3C9010E948F2A1F
:103030003C01E0E28E16910434F51401FFEF2F1AE3
:103040003F0A880C991CF601E80DF91D80819181D9
:103050000E948F2A68167906B1F44101D7CF9511E5
:1030600041CFBCCF84E090E090CF288126FF0FC0F5
:10307000892B69F0F401EE0FFF1FEC0DFD1D80811F
:103080009181892B21F0B42C55245A942DCF5A9438
:10309000B42C2ACF2F923F924F925F926F927F92E1
:1030A0008F929F92AF92BF92CF92DF92EF92FF9258
:1030B0000F931F93CF93DF937C015B01DB018C9116
:1030C0008F3209F4B5C18C3509F4B2C1E7011E8213
:1030D0001F8218861986F5018081803208F4C5C1E7
:1030E00070E2572EE5E02E2EE701CE88DF88082E0D
:1030F000000C990B8032910508F45FC18F32910565
:1031000009F458C08C35910509F454C08601E501D5
:10311000219688248394912C61E070E090E00E94D5
:10312000652A009791F18038910578F482329105F3
:1031300061F1E9EFF1E006C0022E000C330B8217BB
:10314000930719F121912111F7CFF8018193919300
:103150008F0194012F5F3F4F8991082E000C990B2E
:103160008032910508F42DC18F32910539F18C35EB
:10317000910521F12132310541F0490161E070E012
:1031800090E00E94652A009771F686E090E0DF915A
:10319000CF911F910F91FF90EF90DF90CF90BF9054
:1031A000AF909F908F907F906F905F904F903F90E7
:1031B0002F90089521E030E0812C912CA20EB31EB7
:1031C000412C8114910409F3F401EE0FFF1FEC0D63
:1031D000FD1D929182918032910511F08E9729F414
:1031E00021E0821A9108A9F7D0CFF401EE0FFF1F5A
:1031F000D601AE0FBF1F11961C921E92E701EC89FB
:10320000FD89CF010B965192E817F907E1F7F60116
:10321000C0E0D0E0819191918032910519F08E3219
:10322000910511F42196F6CF209719F0E42DE36073
:103230004E2EFD01329122912E32310521F021E0F6
:10324000821A9108B9F708E010E0612C712C312C3A
:103250002196009709F44EC08032910569F18E32B3
:10326000910539F160167106B4F5C815D90509F450
:10327000ADC08038910508F0B5C08B32910509F4D6
:10328000C3C0E2E0F2E007C0022E000C330B82174D
:10329000930709F4B9C021912111F6CF9C01215463
:1032A00031092A31310508F0F6C0232D2260322E73
:1032B000AFC0C815D90559F0842D8360482EFE0192
:1032C000EE0FFF1FEC0DFD1D80819181C1CF6016B7
:1032D00071060CF47BC00B30110509F4ADC0C815A4
:1032E000D90509F476C0B42DB3604B2E8C169D061B
:1032F0000CF06FC0D7015496ED91FC9155978081E9
:10330000853E09F4A7C00830110509F4ABC0832D30
:103310008C708C3009F488C0932D9370933009F42D
:1033200083C041FC08C0932D9370913009F4A9C06B
:10333000843009F4ACC0438660E070E0C7010E94AD
:103340009C12009751F5C7010E945417D70154965B
:10335000ED91FC91559723852470009729F5211153
:1033600016CFE701EA89FB89838584FF23C084891E
:103370009589A0E0B0E0DC0199278827428D538D24
:1033800060E070E0842B952BA62BB72B8E839F8358
:10339000A887B987D5018C91A7CED7015496ED9116
:1033A000FC915597238524708430910509F0EFCE68
:1033B0002111EDCE85E090E0EACE21E030E0812CD5
:1033C000912CA20EB31E94E0492EFBCE0B301105BA
:1033D00099F1330C330CE4010BE010E038E0632E7C
:1033E000712C6DCF60E070E00E94652A009709F4AF
:1033F00044C0FC01EB53FF4F808190E0E42DE2607C
:103400004E2E009709F039CFF42DF3604F2E8FE543
:10341000D7015496ED91FC915597E60DF71D8083E9
:10342000F30131963F014BCFD42DD2604D2E79CF91
:10343000BFEFAB1ABB0A4ACE942D9360492ED70139
:103440005496ED91FC9155978081853E09F05FCFB0
:103450000BE010E02082E701EC89FD8908301105BE
:1034600009F055CF330C330C52CF60E070E0C70148
:103470000E949C121B8A1A8A8ACEB42DB2604B2EEF
:10348000C3CF242D2061422E843009F054CF842DE7
:103490008860482E50CF9C01215631092A313105D0
:1034A00008F0B6CFA32DA1603A2E8052B1CF0F9372
:1034B0001F93423051056105710570F0FC01028DCA
:1034C000138D248D358D401751076207730720F443
:1034D0001F910F910C94F01161E070E080E090E09A
:1034E0001F910F910895CF92DF92EF92FF920F9369
:1034F0001F93423051056105710550F0FC01C28CEB
:10350000D38CE48CF58C4C155D056E057F0548F079
:1035100082E090E01F910F91FF90EF90DF90CF90AD
:1035200008950E949B131F910F91FF90EF90DF90E1
:10353000CF9008950F931F93FC019A01AB01225085
:10354000310941095109828D938DA48DB58D029762
:10355000A109B109281739074A075B0778F4A28146
:10356000B0E00E94E94506A117A120A531A5600F92
:10357000711F821F931F1F910F91089560E070E0EB
:10358000CB011F910F910895EF92FF920F931F931C
:10359000CF93DF93CDB7DEB728970FB6F894DEBF91
:1035A0000FBECDBF8C01F901CB017801B801655F79
:1035B0007F4FDC012D91CD01D7012D937D01A61701
:1035C000B707B9F7E630F10508F476C0DA018D9156
:1035D0009D91E0FBF795E795F7F9E80FF91F8D91BD
:1035E0009D910097B1F77E01B9E0EB0EF11C47E029
:1035F00050E0415051099F01ADECBCEC0E94DA450E
:10360000969587959695879596958795BC01660FB3
:10361000771F9C01220F331F220F331F220F331FEE
:10362000260F371FE21BF30BE05DD701EE937D0100
:10363000FC01892BF1F68EE7FE01E40FF51F818373
:10364000141615060CF03FC0F80180818032D9F1C4
:10365000319620E030E003C08191803229F02F5F65
:103660003F4F24173507C4F3F801E20FF31F0DC0D5
:10367000A1E0B0E0AC0FBD1FA40FB51F8C914F5F50
:103680005F4F81932830310551F02F5F3F4F483015
:10369000510574F380E2819328303105B1F7289603
:1036A0000FB6F894DEBF0FBECDBFDF91CF911F9153
:1036B0000F91FF90EF900895E05DE8878EE78F838C
:1036C00046E050E0C1CF20E030E0CECF2F923F92D5
:1036D0004F925F926F927F928F929F92AF92BF9222
:1036E000CF92DF92EF92FF920F931F93CF93DF93CE
:1036F000CDB7DEB727970FB6F894DEBF0FBECDBFAC
:10370000DC01ED91FC912081022E000C330B205343
:1037100031092A30310518F451815A33B1F1209022
:10372000DB043090DC04FB0131822082211431045F
:1037300089F0142FF1018081882381F181810E9419
:10374000F51080FD2BC0112311F082FD37C080E001
:1037500090E002C08CE090E027960FB6F894DEBFB0
:103760000FBECDBFDF91CF911F910F91FF90EF90D2
:10377000DF90CF90BF90AF909F908F907F906F9091
:103780005F904F903F902F9008953296DC01ED931B
:10379000FC93232B21F28BE090E0DECFD1011C9231
:1037A00011961C9280E00E94E91080FF03C083E024
:1037B00090E0D2CF112329F082FF03C08AE090E08D
:1037C000CBCF40E050E0BA01C1010E94A811813086
:1037D00059F0C12CD12C7601833009F4FEC0882326
:1037E000B1F08DE090E0B8CFF101E051FE4F808163
:1037F0008823B9F3F101EC50FE4FC080D180E28004
:10380000F380B701A601C1010E94A811E5CFF10123
:1038100081AD92AD8115924021F7F101EC5BFF4F34
:103820002081318140E050E02115310541055105ED
:1038300029F43E962081318142815381D1015696EF
:103840002D933D934D935C935997DE96AC91F10186
:10385000A383B0E00E94E9452B013C0144AD55AD86
:1038600060E070E046015701840E951EA61EB71E4B
:10387000868E978EA0A2B1A2B3ADBF83B283FF960E
:1038800020813181D10119963C932E93189732965D
:1038900080819181A0E0B0E00097A105B10529F4F5
:1038A0003D9680819181A281B381F901F295E295E3
:1038B000EF70EF27FF70EF278F0120E030E00983E2
:1038C0001A832B833C83841B950BA60BB70B84199F
:1038D0009509A609B709BC01CD01601B710B820BCC
:1038E000930B1F81212F30E040E050E00E9499456A
:1038F000DA01C9010296A11DB11DF101828F938FDA
:10390000A48FB58F873FFFE09F07A105B10508F49D
:1039100067C0873F9F4FA105B10508F4AFC0F10113
:10392000E65AFF4F80819181A281B381F10182A388
:1039300093A3A4A3B5A309811A812B813C81800E96
:10394000911EA21EB31E480C591C6A1C7B1C46A269
:1039500057A260A671A68FEF9FEFDC01868797873D
:10396000A08BB18B14821582E25AFF4F8081918126
:10397000A7019601280F391F411D511DD1015296F3
:103980002D933D934D935C93559701E0B101625D9A
:103990007F4F11968C910E94F810892B41F4F10110
:1039A000E45DFD4F8081918185359A4AC1F183E0C4
:1039B000D1018C93F10112A613A614A615A680912D
:1039C000D9049091DA0401969093DA048093D90493
:1039D0009783868380E090E0BFCE81E090E0BCCE0C
:1039E00081E0840C951CA61CB71CF10182A293A255
:1039F000A4A2B5A209811A812B813C81800E911E5F
:103A0000A21EB31E86A297A2A0A6B1A64FEF5FEF9B
:103A1000BA0146875787608B718B1482C9CFF10139
:103A200086A597A5A0A9B1A982359245A146B14422
:103A300009F0BDCFF101EE5EFD4F80819181A28141
:103A4000B38182379247A144B14609F0B0CF38968E
:103A500080819181A281B381F10182879387A487BC
:103A6000B587EA5EFD4F80819181A281B381F1012A
:103A700086879787A08BB18B83E09ACF82E0B1CF06
:103A8000882319F08BE090E00895E091DB04F09139
:103A9000DC04309709F010826115710511F0FB010B
:103AA00010827093DC046093DB0480E090E0089562
:103AB0002F923F924F925F926F927F928F929F923E
:103AC000AF92BF92CF92DF92EF92FF920F931F932C
:103AD000CF93DF93CDB7DEB7C054D1090FB6F894BA
:103AE000DEBF0FBECDBF7C017CAB6BAB142FDC0106
:103AF0001D921C924E71BE016F5F7F4FCE01C39627
:103B00000E94661B0097D1F0C05CDF4F0FB6F8949F
:103B1000DEBF0FBECDBFDF91CF911F910F91FF9000
:103B2000EF90DF90CF90BF90AF909F908F907F905D
:103B30006F905F904F903F902F900895B12FBF717D
:103B4000BB2E6E01E7E2CE0ED11CDE8ACD8A87E95C
:103B500094E0988F8F8B6BA97CA9CE0101960E946F
:103B60004A18212F2C7179F4009771F6CB88DC88E4
:103B7000C114D10429F0D6011B968C9184FF2CC26C
:103B800084E090E0C1CF009709F416C1843091051C
:103B900009F0BACF8D889E880F89188DD401FE0157
:103BA0007B968D918193EC15FD05D9F78EA180FF51
:103BB00032C0D4011B961C92188E1F8ACC24C39449
:103BC000D12C0EC0CE0101960E9454170097C1F46B
:103BD000BFEFCB1ADB0AE4E6CE16D10409F4F1C03C
:103BE0009601A801BE01655E7F4FC4010E94C41A00
:103BF00060E070E0CE0101960E949C12009711F3E4
:103C00008430910509F080CF8EA1D4011B968C934E
:103C1000188F0F8B8EA181FFFCC1F80180819181EB
:103C2000892B09F47DC2329620E030E02F5F3F4FB0
:103C300081919191892BD1F7275E3F4FA5ECBEE48E
:103C40000E94DA456C01D694C794D694C79460E07C
:103C500070E0CE0101960E949C12009709F054CFAB
:103C6000812C912C00E010E00BC000E010E061E03E
:103C700070E0CE0101960E94C915009709F044CF6B
:103C80004F85588969897A8989819A810E942A1188
:103C9000009709F039CFEB89FC898081853E11F0CE
:103CA0008111E3CF0115110511F48D809E800F5F06
:103CB0001F4F0C151D05D9F6B1E0CB16D10409F440
:103CC000FAC0B401CE0101960E949C12009709F03F
:103CD0001BCFED89FE899F01255F3F4F712C70FA44
:103CE000779477F88191780E2E173F07C1F7F1E0AE
:103CF000CF1AD108BFE06B2E1DE0512E02ED802EB1
:103D000001E0902E442443944F85588969897A892B
:103D100089819A810E942A11009709F0F5CE1C2D05
:103D20004B895C896F89788DDA011D967C921D978D
:103D30001B966C921B971C961C921C975B961C9270
:103D40001E925A979601332721503109529EC00185
:103D5000539E900D1124A6EC2A2EA1E03A2E01E0EC
:103D6000E0E0F0E01DC09C012F5F3F4F880F991FDE
:103D7000FB01E80FF91F0190F081E02DCA01800FCF
:103D8000911DDC01ED93FC93309711F4EFEFFFEF01
:103D90008214930409F470C0D1010D911D01C90171
:103DA000EF3FBFEFFB07F9F69A01200F311DD90154
:103DB000ED93FC939C01ECCF12FF06C088E090E0ED
:103DC000A3CE87E090E0A0CECB88DC88C114D104DC
:103DD000C1F3D6011B968C911B97817191F713FF4C
:103DE0009CC054968D919C915597A0E0B0E0DC0169
:103DF00099278827F601428D538D60E070E08C0191
:103E00009D01042B152B262B372B09AF1AAF2BAF97
:103E10003CAF158A148A138E128E148E158E168E50
:103E2000178E89809A8081E0F401848302A513A50E
:103E300024A535A521960CAF1DAF2EAF3FAF21971E
:103E400009AD1AAD2BAD3CAD0115110521053105AC
:103E500009F459C1013011052105310551F0828D58
:103E6000938DA48DB58D081719072A073B0708F411
:103E7000D4C082E090E048CE319649F0220F331F43
:103E8000FB01E20FF31F80819181892B09F41064FB
:103E9000FA011083E981FA81448260E070E0CE018A
:103EA00001960E94C915009709F02ECEF1E0CF1AB5
:103EB000D10809F029CF4F85588969897A89898184
:103EC0009A810E942A11009709F01ECEAB89BC8905
:103ED0009D01CD018096FD0111928E179F07E1F79C
:103EE0006D897E89AD01455F5F4FFB018191BF0107
:103EF000F90181939F014E175F07B9F7ED89FE899C
:103F0000838588711C968C93E981FA8181E0848392
:103F1000FB2DF860BF2ECB88DC88B3FC66C0E9813E
:103F2000FA813B892C8942A553A564A575A5D701C3
:103F30005A964D935D936D937C935D975E963C93FB
:103F40005E975F962C935F971496BC92D601549619
:103F50008D919C915597A0E0B0E09C01112700271E
:103F6000D6015A964D915C915B9760E070E0402BD2
:103F7000512B622B732BD7011E964D935D936D933E
:103F80007C935197D6015C964D915D916D917C919A
:103F90005F97D7011A964D935D936D937C931D9710
:103FA00016961D921D921D921C9219978FEF1596D1
:103FB0008C93159756961D921D921D921C9259979F
:103FC0001196FC93EE938681978113969C938E9322
:103FD000129780E090E098CD11FF02C080FDF1CEF5
:103FE000E981FA813C2D2D2D9ECFD6011B961C9286
:103FF0000E94602AF60166877787808B918BE98122
:10400000FA8181E084830B2D0062B02E3B892C89DC
:104010008ACFCC24C394D12C1ACE0DAB1EAB2FABC0
:1040200038AFAA24A39452C061307105810591056F
:1040300009F41FCF6F3F7F4F8F4F9F4F09F473C01D
:10404000F401828D938DA48DB58D0DA91EA92FA984
:1040500038AD081719072A073B0708F00ACF00E018
:1040600010E098014DA95EA96FA978ADC4010E9426
:104070009B13009709F048CDF40186859785A089A8
:10408000B1898F3FFFEF9F07AF07BF0749F0019648
:10409000A11DB11DF40186879787A08BB18BA582E6
:1040A000F401828D938DA48DB58D481659066A064C
:1040B0007B06D8F44DAA5EAA6FAA78AEA30192013E
:1040C000223031054105510508F4D3CE4DA95EA932
:1040D0006FA978ADC4010E94F0112B013C0161155C
:1040E00071058105910509F09FCF89809A8089AD7E
:1040F0009AADABADBCAD0197A109B109F4018287BE
:104100009387A487B58721964CAD5DAD6EAD7FAD2D
:104110002197C4010E942A11009709F4FECEF4CC25
:1041200020E030E089CD81E090E0EECC2F923F920C
:104130004F925F926F927F928F929F92AF92BF92B7
:10414000CF92DF92EF92FF920F931F93CF93DF9363
:1041500000D000D000D0CDB7DEB79C838B837B012D
:104160006A015901D9011D921C92DC01ED91FC916B
:104170001197309719F0808181111DC029E0822E9E
:10418000912CC40126960FB6F894DEBF0FBECDBFAA
:10419000DF91CF911F910F91FF90EF90DF90CF9023
:1041A000BF90AF909F908F907F906F905F904F9057
:1041B0003F902F90089512962D913C9113978681F0
:1041C000978128173907D1F6CF010E94E4114C01DD
:1041D000892BB9F6EB81FC81848187FD06C080FDC7
:1041E00008C087E0882E912CCCCF92E0892E912CAC
:1041F000C8CF86819781A085B18542855385648526
:104200007585481B590B6A0B7B0B860120E030E05B
:10421000401751076207730708F46A01C114D104FB
:1042200009F4AFCF212CE2E03E2EAC01BD0151706C
:1042300066277727EB81FC81452B462B472B09F41A
:104240004BC046895789608D718D0190F081E02DBA
:10425000FE83ED8391708101081B190BC016D106F6
:1042600008F486018D819E810E942A11892B09F014
:1042700030C1EB81FC8186819781A085B1859170E9
:10428000AA27BB27DC019E9680819181A80FB91FC8
:10429000F701E00EF11E8D918193EE16FF06D9F71E
:1042A000EB81FC8186819781A085B185800F911F6C
:1042B000A11DB11DEB81FC8186839783A087B18707
:1042C000F50120813181200F311F31832083C01AF5
:1042D000D10A09F0AACF55CF0190F081E02DFE83DD
:1042E000ED83EB81FC813581ED81FE8122813217E6
:1042F00008F091C0EB81FC8182899389A489B589FA
:104300009C01AD012250310941095109ED81FE8125
:10431000828D938DA48DB58D0297A109B1092817BF
:1043200039074A075B0708F0C8C01281A12FB0E027
:104330000E94E94546A057A060A471A4460E571EEE
:10434000681E791E411451046104710409F4B5C05A
:10435000EB81FC812581420E511C611C711CA60160
:10436000452F552746955A8349834115510509F430
:104370007AC030E0420F531F812F90E084179507D9
:1043800028F4DC01A21BB30BBA83A9831981012F86
:10439000A3019201B701ED81FE8181810E94F81095
:1043A000AB81BC81892B09F096C0ED91FC91848191
:1043B000882301F182A593A5A4A5B5A58419950923
:1043C000A609B70929813A81A90160E070E0841744
:1043D0009507A607B70770F4DC01BA2FAA27BB0F11
:1043E000BE96AE0DBF1DCD019E5F21912D938A1704
:1043F0009B07D9F7EB81FC818581180F1583098113
:104400001A81102F0027110F86819781A085B18511
:10441000E00EF11E4BCF892B8A2B8B2BC1F5AB8184
:10442000BC811E966D917D918D919C9151976230CA
:1044300071058105910508F440C06F3FFFEF7F07CC
:104440008F079F0709F445C0EB81FC81628B738B5A
:10445000848B958B15820190F081E02DFE83ED8396
:10446000DC01CB014DCFAB81BC8156964D925D9264
:104470006D927C9259972F5F15962C931597FD019D
:1044800086819781A085B185A201B301E3CEEB813E
:10449000FC814289538964897589423051056105DF
:1044A000710558F0ED81FE81828D938DA48DB58DBF
:1044B000481759076A077B07C0F0AB81BC81149687
:1044C0008C911497806814968C9372E0872E912CAF
:1044D00058CEAB81BC8114968C9114978068149649
:1044E0008C9388248394912C4CCECF010E94F011A0
:1044F0009ECF2F923F924F925F926F927F928F92B8
:104500009F92AF92BF92CF92DF92EF92FF920F9362
:104510001F93CF93DF9300D000D000D0CDB7DEB78C
:104520009C838B836B017A014901D9011D921C92F6
:10453000DC01ED91FC911197309719F08081811188
:104540001DC029E0A22EB12CC50126960FB6F89405
:10455000DEBF0FBECDBFDF91CF911F910F91FF90B6
:10456000EF90DF90CF90BF90AF909F908F907F9013
:104570006F905F904F903F902F90089512962D91DD
:104580003C9113978681978128173907D1F6CF017F
:104590000E94E4115C01892BB9F6EB81FC818481D6
:1045A00087FD06C081FD08C087E0A82EB12CCCCFC6
:1045B00092E0A92EB12CC8CF0285138524853585BC
:1045C000B901A8014E0D5F1D611D711D40175107F6
:1045D0006207730708F499C1E114F10409F4FEC1FC
:1045E000EB81FC8186819781A085B185212CF2E049
:1045F0003F2EAC01BD01517066277727EB81FC810E
:10460000452B462B472B09F462C046895789608D9C
:10461000718D0190F081E02DFE83ED839170810119
:10462000081B190BE016F10608F487018D819E81A5
:104630000E942A11892B09F043C1EB81FC818681FC
:104640009781A085B1859170AA27BB27FC01BE96F2
:10465000AB81BC818D919C91D601E80FF91FCF01F0
:10466000800F911F2D912193E817F907D9F7AB819E
:10467000BC81ED91FC91B1E0B483C00ED11EEB8101
:10468000FC814681578160857185DB01CA01800FFD
:10469000911FA11DB11DAC01BD0186839783A08729
:1046A000B187F40120813181200F311F31832083B4
:1046B000E01AF10A09F09DCFAB81BC811A960D91E9
:1046C0001D912D913C911D9714968C9122C10190C2
:1046D000F081E02DFE83ED83EB81FC813581ED815E
:1046E000FE812281321778F1892B8A2B8B2B09F0DE
:1046F000F3C0AB81BC811E966D917D918D919C9193
:104700005197611571058105910509F445C1613025
:1047100071058105910509F44CC16F3FBFEF7B071F
:104720008B079B0709F451C1AB81BC8152966D93F5
:104730007D938D939C93559715961C921597ED91AB
:10474000FC91FE83ED83ED81FE8142A553A564A516
:1047500075A5EB81FC8186899789A08DB18D48175D
:1047600059076A077B0709F406C1EB81FC8182893E
:104770009389A489B5899C01AD0122503109410971
:104780005109ED81FE81828D938DA48DB58D0297A7
:10479000A109B109281739074A075B0708F009C1C1
:1047A0001281A12FB0E00E94E94546A057A060A465
:1047B00071A4460E571E681E791E411451046104EF
:1047C000710409F4F6C0EB81FC812581420E511C75
:1047D000611C711CA701452F552746955A834983B3
:1047E0004115510509F451C030E0420F531F812F8C
:1047F00090E08417950728F4DC01A21BB30BBA8361
:10480000A9831981012FA3019201B601ED81FE81D7
:1048100081810E940011AB81BC81892B09F052C0BB
:10482000ED91FC9182A593A5A4A5B5A58419950940
:10483000A609B70929813A81A90160E070E08417CF
:104840009507A607B707B0F4982F8827990F8C0D06
:104850009D1DDF019E96AF01425D5D4FFC012191E0
:10486000CF012D934A175B07C9F7AB81BC81ED914E
:10487000FC911482EB81FC818581180F15830981DD
:104880001A81102F0027110FF8CEEB81FC81868151
:104890009781A085B1854285538564857585841788
:1048A0009507A607B70708F045C0EB81FC81468A4B
:1048B000578A608E718E2F5F2583A201B301AECE21
:1048C000AB81BC8114968C911497806814968C935C
:1048D000AA24A394B12C38CEAB81BC8152964D91C1
:1048E0005D916D917C9155978D819E810E949C1464
:1048F000611571058105910509F009CFEB81FC81F6
:10490000028513852485358584814681578160859C
:104910007185041715072607370730F4EB81FC81F2
:1049200042875387648775878062AB81BC81149608
:104930008C930ACE40E050E0BA018D819E810E94A6
:104940002A11892B09F0BCCFEB81FC810190F08109
:10495000E02DFE83ED8342A653A664A675A6AB8127
:10496000BC8115962C91159716968D919D910D9061
:10497000BC91A02D9ACF40E050E0BA018D819E817C
:104980000E942A11892B09F5AB81BC810D90BC9145
:10499000A02DBE83AD83E9CE40E050E0BA01CF0147
:1049A0000E949C14EB81FC8166877787808B918BBA
:1049B0009FCFAB81BC8114968C911497806814961C
:1049C0008C9372E0A72EB12CBFCDEB81FC8184814A
:1049D00080688483AA24A394B12CB6CDAB81BC811A
:1049E00016964D915D916D917C91199792CF0F9391
:1049F0001F93CF93DF93DC01ED91FC9111973097DA
:104A000019F02081211107C089E090E0DF91CF915A
:104A10001F910F91089512964D915C9113972681E5
:104A200037814217530781F7EC01CF010E94E4114F
:104A3000009761F72C8125FFE9CF4A8D5B8D6C8D46
:104A40007D8D888199810E942A110097F9F60E8D3B
:104A50001F8DF8018385806283878A859B85AC855D
:104A6000BD85848F958FA68FB78F8E859F85A889EA
:104A7000B989938F828FB58BA48B0E94602AD8014D
:104A800056966D937D938D939C9359978C818F7DD2
:104A90008C83E881F98181E084830990D881C02DDD
:104AA00040E050E0BA01CE010E942A11009709F0BF
:104AB000ADCF8881833079F040E050E060E08981BB
:104AC0000E94081131E020E0892B19F0832F922FEA
:104AD0009DCF30E0FBCF8D81882371F31AA61BA6F2
:104AE0001CA61DA6BE01625D7F4FFB01CE01825D4B
:104AF0009D4F11928E179F07E1F785E59AEAFE0117
:104B0000E45DFD4F9183808382E592E5A1E6B1E407
:104B10008EA79FA7A8ABB9AB82E792E7A1E4B1E665
:104B20007A9780839183A283B3838E859F85A8899A
:104B3000B989349680839183A283B3838A859B85C8
:104B4000AC85BD85349680839183A283B3832A8903
:104B50003B894C895D8901E089810E9400111D8299
:104B6000ABCFCF93DF93EC010E94F724009711F4B1
:104B700019821882DF91CF9108952F923F924F9220
:104B80005F926F927F928F929F92AF92BF92CF92DD
:104B9000DF92EF92FF920F931F93CF93DF9300D09A
:104BA00000D000D0CDB7DEB79E838D836A017B0134
:104BB000DC01ED91FC911197309719F08081811102
:104BC0001CC009E010E0C80126960FB6F894DEBFBD
:104BD0000FBECDBFDF91CF911F910F91FF90EF904E
:104BE000DF90CF90BF90AF909F908F907F906F900D
:104BF0005F904F903F902F90089512962D913C9189
:104C000013978681978128173907D9F6CF010E941B
:104C1000E4118C01892BB9F6ED81FE81848187FD39
:104C2000B3C042855385648575854C155D056E0559
:104C30007F0520F481FD02C06A017B01AD81BE8148
:104C400016964D915D916D917C911997FD0116829B
:104C50001782108611868FEF8583C114D104E10479
:104C6000F10409F4B0CF20803180D10112968C90EC
:104C7000912CA12CB12C99E0880C991CAA1CBB1C6E
:104C80009A95D1F7411551056105710529F12A0160
:104C90003B01B1E04B1A510861087108C701B60128
:104CA0006150710981099109A50194010E949945FA
:104CB00029833A834B835C83C301B201A50194012C
:104CC0000E94994589819A81AB81BC8182179307A3
:104CD000A407B50708F023C1AD81BE811E964D9192
:104CE0005D916D917C91519741155105610571055B
:104CF00009F42FC1AD81BE8152964D935D936D93A2
:104D00007C935597411551056105710509F03FC028
:104D1000ED81FE8186809780A084B18480E090E060
:104D2000DC01B501A401517066277727ED81FE8172
:104D3000452B462B472B79F046895789608D718D1D
:104D400084179507A607B70731F0ED81FE81868BA2
:104D5000978BA08FB18F82859385A485B5858815A3
:104D60009905AA05BB0508F02ECFAD81BE811A9624
:104D70008D929D92AD92BC921D9714968C91149732
:104D8000806214968C931FCF02E010E01CCF8C142D
:104D90009D04AE04BF0408F023C1AD81BE81ED9136
:104DA000FC919F01ED81FE81848181FD1AC042301A
:104DB00051056105710568F0D9015A964D905D90D5
:104DC0006D907C905D97441555056605770508F450
:104DD000A0C08068AD81BE8114968C9302E010E083
:104DE000F2CEC9010E949C14AB01BC0141155105D2
:104DF0006105710509F4E0C04F3FBFEF5B076B072A
:104E00007B0709F4C8C0423051056105710508F4FB
:104E1000CAC0ED81FE8120813181F901828D938D9F
:104E2000A48DB58D481759076A077B0708F0BBC0EA
:104E3000ED81FE81428B538B648B758B86819781CC
:104E4000A085B185880D991DAA1DBB1D86839783FA
:104E5000A087B187C818D908EA08FB088C149D04FC
:104E6000AE04BF0408F49ECF46015701880E991E78
:104E7000AA1EBB1EAD81BE8116968D929D92AD92EB
:104E8000BC9219972601370189E07694679457946C
:104E900047948A95D1F715964C92B1E0DB22EE2427
:104EA000FF24CD28CE28CF2809F482C0AD81BE8151
:104EB000ED91FC919A01AB01225031094109510950
:104EC000828D938DA48DB58D0297A109B109281704
:104ED00039074A075B0708F056C0A281B0E00E947C
:104EE000E945C6A0D7A0E0A4F1A4DC01CB018C0D5C
:104EF0009D1DAE1DBF1D0097A105B10509F443C05E
:104F0000840D951DA61DB71D4394ED81FE8145823C
:104F100008CFC9010E94F011AB01BC016DCF8827F9
:104F20009927DC0188199909AA09BB0984219521CF
:104F3000A621B721ED81FE8186839783A087B18763
:104F4000C81AD90AEA0AFB0A428953896489758911
:104F5000D9CE40E050E0BA01C1010E949C14AB01DF
:104F6000BC01413051056105710569F04F3FFFEF0C
:104F70005F076F077F0749F1ED81FE8146875787FD
:104F8000608B718BB7CEED81FE81848180688483D4
:104F900002E010E018CEED81FE8184818068848378
:104FA00001E010E010CEAD81BE8114968C9111CF3E
:104FB00080E090E0DC01B5CEED81FE8186819781B5
:104FC000A085B185750164014FCFAD81BE81149676
:104FD0008C911497806814968C9301E010E0F3CDC7
:104FE000ED81FE8186819781A085B1853DCF0F93AC
:104FF0001F93CF93DF93CDB7DEB72E970FB6F894FC
:10500000DEBF0FBECDBF8C017E876D8740E0BC0147
:10501000CE010D960E94661B009759F02E960FB692
:10502000F894DEBF0FBECDBFDF91CF911F910F91DE
:105030000895CE010196D80155969C938E9354976E
:1050400087E994E057969C938E9356976D857E855D
:10505000C8010E944A18009769F5D8015296ED914F
:10506000FC9153973097B9F0838584FF27C08489DA
:105070009589A0E0B0E0DC0199278827428D538D07
:1050800060E070E0842B952BA62BB72BF80186836C
:105090009783A087B187D801ED91FC911197868104
:1050A000978113969C938E93129760E070E0C801ED
:1050B0000E949C128430910509F0B0CF85E090E009
:1050C000ADCF4F925F926F927F928F929F92AF92ED
:1050D000BF92CF92DF92EF92FF920F931F93CF93E5
:1050E000DF93CDB7DEB72C970FB6F894DEBF0FBEB7
:1050F000CDBFDC01ED91FC911197309719F0208123
:10510000211119C089E090E02C960FB6F894DEBF0B
:105110000FBECDBFDF91CF911F910F91FF90EF9008
:10512000DF90CF90BF90AF909F908F907F906F90C7
:105130005F904F90089512964D915C911397268140
:10514000378142175307F1F67B018C01CF010E9492
:10515000E4110097C9F6CE010196F801958B848B76
:1051600087E994E0978B868BE114F10409F411C16F
:1051700099249A94DD24DA9484E090E02DE0C22E04
:1051800032EDA32E31E0B32E0CC02F3091F1DD248F
:10519000DA9460E070E0C8010E94C915009709F038
:1051A00078C0F80146855785608971894115510598
:1051B0006105710509F46BC0D8018D919C910E9425
:1051C0002A11009709F065C0D8015296ED91FC9123
:1051D00053978081882309F4C5C0853EC1F28E3281
:1051E000B1F29385292F2F7393FDCFCF2F3009F084
:1051F000D6C086FF49C095848F7BD82ED8011496DF
:105200008D919C91159759969C938E935897858470
:105210008910BDCFD80156966D917C9157978081AA
:105220008F7390E00197C89E9001C99E300D1124A4
:10523000B6EC4B2EB1E05B2E81E041E050E015C0B2
:1052400020323105ECF4A901440F551F460F571FBA
:10525000DA018D939C93AC012F5F3F4FA414B504EA
:1052600009F486C0D2018D912D013F01680E711C99
:10527000D3018D919C914115510511F7019671F360
:10528000982CDD24DA9485CF8D1181CFC0CF009783
:1052900061F0D8011E961D921D921D921C9251978D
:1052A0009C012B7F232B09F02FCF5701B9E0AB0EC8
:1052B000B11CF5011082D70156966D907C905797DE
:1052C00061147104E1F1F80186859785A089B1899F
:1052D000892B8A2B8B2B69F1808D918D019649F159
:1052E0000688F789E02D5F01B2E0AB0EB11C80812A
:1052F00091810097F1F04301C12CD12C14C0F7012A
:10530000208D318D21503109C216D30694F4FFEF60
:10531000CF1ADF0AD4018D934D01F501819191914E
:105320005F01009741F060E070E00E94652A0097FD
:1053300031F7C12CD12CF301EC0DFD1D108260E082
:1053400070E0C8010E94C9158430910509F0DCCED7
:10535000D8011E961D921D921D921C92519780E0BD
:1053600090E0D2CEF80116861786108A118A9DCF5A
:10537000808186FF0BC0203231050CF081CF220FD7
:10538000331FFB01E20FF31F11821082DA94982C75
:1053900000CF60E070E0C8010E949C12B5CED11031
:1053A00011C0DF0111969F01255F3F4F90E001C0C2
:1053B0008D9190FB979597F9980F2A173B07C1F7A6
:1053C000991539F08FEF9FEFD80159969C938E93E2
:1053D00058979701275F3F4FD8011E964D915D91D9
:1053E0006D917C915197452B462B472B09F466C054
:1053F000D484AF01570181E1A80EB11C9D2D987096
:1054000011C0992329F06FEB680F6A3108F4805EB0
:105410002F5F3F4FB90161507109DB018C932A1551
:105420003B0551F0DA018D91AD01803221F08530DC
:1054300041F785EEEDCF59018085803211F1C5012C
:1054400001962EE2D5012C93AF01485F5F4FB4E087
:10545000AB0EB11C3D2D3071DA012D91AD01203222
:1054600059F1332329F06FEB620F6A3108F4205EA3
:105470000196BC0161507109DB012C938A159B05D3
:1054800059F78385D70118968C931897448D558DBD
:10549000668D778D4D935D936D937C931397808D7F
:1054A000918D15969C938E9314978689978917965C
:1054B0009C938E931697FDCE5C01E3CF5901F9CEF4
:1054C00060EC73EB89E494E3089580389105F0F083
:1054D000672BB1F424EB36E040E050E007C04F5FAB
:1054E0005F4F2E5F3F4F4038510571F0F9016591D4
:1054F00074918617970799F7CA0180589F4F0895AE
:105500008F3F910521F018F080E090E00895FC01B4
:10551000EE0FFF1FEC54FA4F85919491089524EDFE
:1055200034E0F90145915491452B41F1F901459140
:1055300054918417950711F126ED34E040E050E0D6
:1055400009C0F90165917491F901329668177907DC
:1055500041F09F014F5F5F4FF90165917491672B97
:1055600081F7F90125913491232B39F0FA01EE0FDF
:10557000FF1FEC50FD4F85919491089540E050E05D
:10558000F0CF80B1869581700895882379F082B13B
:105590008D6282B98DE281B98FE39CE90197F1F7C1
:1055A00000C0000080B1869581700895109881B187
:1055B000827D81B9F1CF1298129A089590E027E088
:1055C00030E006C0139A1298129A2150310978F0EF
:1055D000AC01022E02C0559547950A94E2F740FDB2
:1055E000F1CF13981298129A2150310988F7089533
:1055F00027E030E080E061E070E01298129A049BAE
:1056000007C0AB01022E01C0440F0A94EAF7842BB5
:105610002150310990F70895159886E00E94DE2AFE
:10562000159A0895159884E00E94DE2A159A089527
:10563000CF93C82F159881E00E94DE2A8C2F0E94FC
:10564000DE2A159ACF910895159885E00E94DE2AEA
:1056500027E030E080E061E070E01298129A049B4D
:1056600007C0AB01022E01C0440F0A94EAF7842B55
:105670002150310990F7159A0895CF93DF93C8EE22
:10568000D3E002C0209789F021970E94242BEFE3FA
:10569000FCE93197F1F700C000008111F3CF81E000
:1056A000CD2B19F0DF91CF91089580E0DF91CF915C
:1056B00008950E943D2B159886E00E94DE2A159AD7
:1056C000159887EC0E94DE2A159A0C943D2B1F93A7
:1056D000CF93DF93EB01182F159A0E943D2B15985D
:1056E00086E00E94DE2A159A159882E00E94DE2A42
:1056F000812F0E94DE2A8D2F0E94DE2A8C2FDF91BF
:10570000CF911F910C94DE2A0C943D2B0F931F9385
:10571000CF93DF930E94242B082F82E798E00E940A
:105720002609802F0E944E098EE698E00E942609E5
:1057300010E0C7E0D0E006C08CE698E00E942609A1
:10574000219778F098010C2E02C0359527950A9480
:10575000E2F720FDF1CF8AE698E00E942609219722
:1057600088F7DF91CF911F910F910C94910981E0FF
:105770000E94C52A15988BEA0E94DE2A80E00E94CA
:10578000DE2A80E00E94DE2A80E00E94DE2A0E945B
:10579000F82A159A8051873068F4E82FF0E0EE0F70
:1057A000FF1FEE0FFF1FEE52FE4F6081718182815D
:1057B0009381089560E070E0CB010895682F70E058
:1057C00020E030E080E0AB01022E02C05595479505
:1057D0000A94E2F7880F40FD81602F5F3F4F283029
:1057E000310589F708957F928F929F92AF92BF9271
:1057F000CF92DF92EF92FF920F931F93CF93DF939D
:10580000CDB7DEB7A3970FB6F894DEBF0FBECDBFFE
:105810008C014A015B017E2C0E94370988E698E0E2
:105820000E94260960E070E0CB010E94620986E6D2
:1058300098E00E94260960E070E0CB010E946209B6
:105840000E9491094AE0B801CE0101960E94581DBC
:105850007C01892B09F099C081E00E94C52A159826
:1058600083E00E94DE2A80E00E94DE2A80E00E941F
:10587000DE2A80E00E94DE2A1AA219A28114910475
:10588000A104B10409F456C0C12CD12C760120C06A
:105890008BA39E012F5D3F4F41E050E0BE016D5D47
:1058A0007F4FCE0101960E9479228FEFC81AD80A45
:1058B000E80AF80AD701C6019F70AA27BB27892BDF
:1058C0008A2B8B2BF9F08C149D04AE04BF0491F14C
:1058D0000E94F82A7110DCCF682F70E020E030E0E1
:1058E00090E0AB01022E02C0559547950A94E2F76D
:1058F000990F40FD91602F5F3F4F2830310589F7A8
:105900009BA3C7CF8EE398E00E942609D701C6016A
:105910002AE0B695A795979587952A95D1F70E9485
:10592000590989E398E00E9426098C149D04AE046D
:10593000BF0471F6159A80E00E94C52A8CE298E0B7
:105940000E942609CE0101960E94B12586E298E0C8
:105950000E942609C8010E9437098AE198E00E9446
:105960002609A3960FB6F894DEBF0FBECDBFDF9118
:10597000CF911F910F91FF90EF90DF90CF90BF904C
:10598000AF909F908F907F9008958CE498E00E9454
:105990002609C7010E947333D5CF9F92AF92BF9261
:1059A000CF92DF92EF92FF920F931F93CF93DF93EB
:1059B000CDB7DEB7A3970FB6F894DEBF0FBECDBF4D
:1059C0008C01A22E0E94370988E198E00E942609E6
:1059D00060E070E0CB010E9462090E94910941E001
:1059E000B801CE0101960E94581D7C01892B09F057
:1059F000B2C081E00E94C52A8CEE97E00E94260981
:105A0000289A0E94592B85EE97E00E9426091AA237
:105A100019A2B12CC12CD12C7601992493949E010A
:105A20002F5D3F4F41E050E0BE016D5D7F4FCE01E5
:105A300001960E94962089A19AA1019709F04AC077
:105A4000A11014C06BA170E080E090E020E0AB01F9
:105A5000082E02C0559547950A94E2F7220F40FDA3
:105A6000216001968830910591F72BA3CC2059F144
:105A70008BA10E94DE2A2FEFC21AD20AE20AF20A92
:105A8000D701C6019F70AA27BB27892B8A2B8B2B96
:105A900031F687ED97E00E942609D701C6012AE07A
:105AA000B695A795979587952A95D1F70E9459099C
:105AB00082ED97E00E942609BB2051F02898392DED
:105AC0003B19B32EACCFC701B6010E94672BD0CFD4
:105AD000289AF5CF0E94842B80E00E94C52A86EC8C
:105AE00097E00E94260982E328989FEF29EF30E093
:105AF000915020403040E1F700C00000289A9FEF0D
:105B000029EF30E0915020403040E1F700C0000024
:105B1000815051F7CE0101960E94B12580EC97E0AB
:105B20000E942609C8010E94370984EB97E00E9471
:105B30002609A3960FB6F894DEBF0FBECDBFDF9146
:105B4000CF911F910F91FF90EF90DF90CF90BF907A
:105B5000AF909F90089580E098E00E942609C701C9
:105B60000E947333D7CF8F929F92AF92BF92EF92E2
:105B70000F931F93CF93DF93EC010E94B72B4B0140
:105B80005C0180910E0190910F01A0911001B091E4
:105B900011010297A105B10550F08CEC98E00E942C
:105BA0002609C501B4010E9462090E949109E12CF5
:105BB00000E010E09801B501A401CE010E94F32B92
:105BC000DF91CF911F910F91EF90BF90AF909F9079
:105BD0008F90089520E040E050E0BA010C94CD2C65
:105BE000CF92DF92EF92FF92CF9381E00E94C52A7D
:105BF0000E94862B15988BEA0E94DE2A80E00E9484
:105C0000DE2A80E00E94DE2A80E00E94DE2A0E94D6
:105C1000F82AC82F159A80E00E94C52A8FEB98E0D9
:105C20000E9426098C2F0E944E098DEB98E00E945D
:105C30002609C43109F44EC018F5C03109F440C03A
:105C4000C23161F581EB98E00E942609C12CD12C6C
:105C500038E0E32EF12C0E94910984E898E00E943C
:105C60002609C701B6010E9462098EE798E00E94EA
:105C70002609CF91FF90EF90DF90CF900C9491097F
:105C8000C531A1F0C63151F48BE998E00E94260994
:105C9000C12CD12C80E8E82EF12CDDCF8DE898E0E6
:105CA0000E942609C12CD12C7601D5CF82EA98E03A
:105CB0000E942609C12CD12C90E4E92EF12CCBCFE7
:105CC00087EB98E00E942609C12CD12C42E0E42EFB
:105CD000F12CC1CF8AEA98E00E942609C12CD12C70
:105CE00020E2E22EF12CB7CF0C94007C0895CF93E4
:105CF000DF938EE199E00E9426090E949109CDEA86
:105D0000D9E023C048E050E084E495E00E942047B9
:105D100060917705709178054EE150E083E595E05C
:105D20000E94204784E495E00E94370989E199E0C8
:105D30000E94260983E595E00E9437090E94910997
:105D400027968AE0CA36D807A1F047E050E0BE01A6
:105D500082E795E00E941747609173057091740582
:105D60006115710579F68AE099E0DF91CF910C9485
:105D70002609DF91CF910895CF93DF9300D000D013
:105D8000CDB7DEB79E012F5F3F4F3F932F9328E0A3
:105D900032E03F932F939F938F930E9425488981F0
:105DA0009A81AB81BC8180930E0190930F01A093E7
:105DB0001001B09311010F900F900F900F900F9062
:105DC0000F900F900F900F900F90DF91CF9108954B
:105DD000CF93DF9300D000D0CDB7DEB79E012F5F09
:105DE0003F4F3F932F9328E032E03F932F939F93B1
:105DF0008F930E94254889819A81AB81BC8136E0CE
:105E0000B695A795979587953A95D1F70F900F90EE
:105E10000F900F900F900F90892B8A2B8B2B01F1F5
:105E200040E050E0BA012FEF8FE193E02150804035
:105E30009040E1F700C000004F5F5F4F6F4F7F4F12
:105E400089819A81AB81BC8126E0B695A79597950B
:105E500087952A95D1F7481759076A077B0718F3E2
:105E60000F900F900F900F90DF91CF91089580E0E9
:105E70000C94F231CF93DF93EC0180910E0190915D
:105E80000F01A0911001B091110182309105A1057F
:105E9000B10560F08FE399E00E94260980910E0120
:105EA00090910F01A0911001B0911101892B8A2BC3
:105EB0008B2B49F08CE092E00E943709CE010E94C2
:105EC00037090E94910960E0CE01DF91CF910C94D7
:105ED0008333CF93DF93EC0180910E0190910F01FA
:105EE000A0911001B091110182309105A105B10579
:105EF00060F084E399E00E94260980910E01909160
:105F00000F01A0911001B0911101892B8A2B8B2BCD
:105F100049F08CE092E00E943709CE010E943709D7
:105F20000E94910960E0CE01DF91CF910C94F33390
:105F30000F931F93CF93DF938C01CDEAD9E047E015
:105F400050E0BE0182E795E00E941747609173051B
:105F5000709174056115710529F148E050E084E401
:105F600095E00E94204760917705709178054EE199
:105F700050E083E595E00E942047E4E4F5E00190DD
:105F80000020E9F73197AF014454554064E475E0CF
:105F9000C8010E943A47892B61F02796FAE0CA3679
:105FA000DF0769F6C1E08C2FDF91CF911F910F9130
:105FB0000895C091720580910E0190910F01A091FA
:105FC0001001B09111010297A105B10560F083EABB
:105FD00099E00E94260984E495E00E94370981EA4D
:105FE00099E00E9426096FE872E0C8010E94EE3134
:105FF00040910E0150910F016091100170911101BB
:10600000CC2309F449C00DE415E021C0F8018193C7
:1060100091938F0140910E0150910F0160911001F9
:1060200070911101423051056105710570F00E94B7
:10603000370983E999E00E94260940910E015091A9
:106040000F016091100170911101CC2329F1C15011
:10605000423051056105710520F085E999E00E9403
:1060600026096FE872E080E090E00E94EE31009730
:1060700069F68FE799E00E94260984E495E00E9482
:1060800037098AE799E00E94260983E595E00E9496
:1060900037090E94910986CF42305105610571058B
:1060A00010F00E949109C0917205C13009F480C0BE
:1060B00008F478C0C23009F444C0C33009F03FC0CE
:1060C00080910E0190910F01A0911001B0911101EA
:1060D000892B8A2B8B2B01F182E599E00E942609FE
:1060E00080914D0590914E050E9437098EE499E00C
:1060F0000E94260980914F05909150050E94370912
:106100008AE499E00E9426098091510590915205F8
:106110000E9437090E949109409151055091520502
:1061200060914F0570915005E0917505F0917605ED
:1061300080914D0590914E050995C0E034CFC0E0A7
:1061400032CF80910E0190910F01A0911001B0917A
:106150001101892B8A2B8B2BB1F082E699E00E94EA
:10616000260980914D0590914E050E9437098EE5D4
:1061700099E00E94260980914F05909150050E9458
:1061800037090E94910960914F0570915005E09187
:106190007505F091760580914D0590914E05099514
:1061A000C0E001CFE0917505F09176050995FBCE31
:1061B00080910E0190910F01A0911001B0911101F9
:1061C000892B8A2B8B2B61F08EE699E00E942609A1
:1061D00080914D0590914E050E9437090E949109CA
:1061E000E0917505F091760580914D0590914E05F1
:1061F0000995C0E0D8CE0F931F93CF93DF93CDB70F
:10620000DEB7A0970FB6F894DEBF0FBECDBF41E05A
:10621000BC01CE0101960E94581D8C01892B29F0EA
:1062200029C087EA97E00E94982FAE014F5F5F4F29
:1062300060E587EA97E00E941E33892B11F1809177
:106240000E0190910F01A0911001B0911101892BC5
:106250008A2B8B2B31F380EF98E00E94260987EA86
:1062600097E00E9437098EEE98E00E9426090E946E
:106270009109D7CF82EF98E00E942609C8010E94B9
:106280007333CE0101960E94B125C801A0960FB6C6
:10629000F894DEBF0FBECDBFDF91CF911F910F915C
:1062A00008950C94FB30CF93DF93CDB7DEB72A97D8
:1062B0000FB6F894DEBF0FBECDBF209A8AE090E003
:1062C0000E946E072FEF33ED80E321503040804075
:1062D000E1F700C000000E94DC0C0E94A90883E0E6
:1062E00028989FEF23EC39E0915020403040E1F7AF
:1062F00000C00000289A9FEF23EC39E09150204025
:106300003040E1F700C00000815051F78AE0ECE135
:10631000F2E0DE01119601900D928A95E1F760E0BE
:1063200070E080E00E94401D69E775E080E00E9417
:10633000401DCE0101960E94FB30892B21F08FE990
:106340009CE00E9426098FEF93EC29E08150904059
:106350002040E1F700C000008EE79CE00E94260983
:106360008DE69CE00E9426092A960FB6F894DEBFBF
:106370000FBECDBFDF91CF910895CF93DF93CDB7FF
:10638000DEB7E3970FB6F894DEBF0FBECDBF19821C
:1063900062E3CE0101960E94D3099981992341F0CD
:1063A00081110AC087E59CE00E942609289AEFCF58
:1063B0008111F6CF289AEBCF2898CE0101960E9442
:1063C000982F882379F385E69CE00E942609CE0168
:1063D00001960E9437090E949109E4CF45EE54E0EE
:1063E0000C9453472F923F924F925F926F927F92FD
:1063F0008F929F92AF92BF92CF92DF92EF92FF92D5
:106400000F931F93CF93DF93CDB7DEB7EE970FB601
:10641000F894DEBF0FBECDBF8EAF66E272E0CE0154
:1064200081960E94F7277C01892B09F0EDC0CE01EF
:1064300001969093FE048093FD0480E290E0909397
:1064400000058093FF04612C712C412C512C812C70
:10645000912C540187EA282E87E0382E67EE74E0ED
:10646000CE0181960E9461287C01892B09F0ACC085
:106470008091F004882309F4A7C08091EF04982F3D
:10648000907184FF91C00FEF601A700AC090E7040A
:10649000D090E804E090E904F090EA04E091FD0473
:1064A000F091FE042081211102C0E0EFF4E0209180
:1064B000ED043091EE04A901569547955295429509
:1064C0004F7045275F7045274F735527132F16953B
:1064D000169516952091EB043091EC04D901AF711B
:1064E000BB27B90176956795729562956F7067279E
:1064F0007F7067276F707727232F332726952454C3
:10650000384F85FF4EC001E40BAF82FF47C003E563
:106510000CAF81FF41C008E480FF3BC082E58DAF36
:106520009923A9F184E4FF93EF93FF92EF92DF9216
:10653000CF925F934F931F921F93BF93AF937F931D
:106540006F933F932F931F929BAD9F931F922CAD00
:106550002F931F920F931F929DAD9F931F928F9326
:1065600088E292E09F938F933F922F920E9403487C
:106570000FB6F894DEBF0FBECDBF0EAD01116ECFCA
:1065800087EA97E00E9437090E94910967CF8DE260
:10659000CACF8DE28DAFC4CF0DE2BECF0DE20CAFFE
:1065A000B8CF0DE20BAFB1CF2FEF421A520AC09015
:1065B000E704D090E804E090E904F090EA048C0C41
:1065C0009D1CAE1CBF1C6ACF7F926F92BF92AF9290
:1065D0009F928F925F924F9283E592E09F938F9369
:1065E00087EA97E09F938F930E9403480FB6F89431
:1065F000DEBF0FBECDBF0EAD011106C087EA97E02A
:106600000E9437090E949109C701EE960FB6F894CF
:10661000DEBF0FBECDBFDF91CF911F910F91FF90D5
:10662000EF90DF90CF90BF90AF909F908F907F9032
:106630006F905F904F903F902F9008957F928F9230
:106640009F92AF92BF92CF92DF92EF92FF920F9301
:106650001F93CF93DF9300D0CDB7DEB7782EE92E0E
:106660004A01A62EB12C81E0A81AB108072D192FD6
:10667000F12CC12CD12CCA14DB04E4F49E012F5F51
:106680003F4F41E050E0B801C4010E9496202981AB
:106690003A812130310571F4F80120812D3059F310
:1066A000F3942A3039F00F5F1F4FCF2CD12CCA142E
:1066B000DB0424F3F8011082FF2091F0872D9E2D3A
:1066C0000F900F90DF91CF911F910F91FF90EF905E
:1066D000DF90CF90BF90AF909F908F907F90089564
:1066E00080E090E0EDCFCF93DF93EC018AEC9CE06B
:1066F0000E942609CE010E945B0A0E943709DF91A1
:10670000CF910C949109AF92BF92CF92DF92EF920A
:10671000FF921F93CF93DF93CDB7DEB7A3970FB64A
:10672000F894DEBF0FBECDBF162F41E0BC01CE01F5
:1067300001960E94581D5C01892BB9F5C12CD12C02
:1067400076010CC08BA10E944E0989EE9CE00E944C
:1067500026098FEFC81AD80AE80AF80A9E012F5DA9
:106760003F4F41E050E0BE016D5D7F4FCE0101968D
:106770000E94962089A19AA1892BF1F01111E9CFED
:10678000D701C6018F709927AA27BB27892B8A2B8F
:106790008B2BC1F60E949109C701B6010E946209C4
:1067A0008BEE9CE00E942609CDCF8FEE9CE00E94EC
:1067B0002609C5010E9473330E949109CE010196FA
:1067C0000E94B125C501A3960FB6F894DEBF0FBE97
:1067D000CDBFDF91CF911F91FF90EF90DF90CF90D1
:1067E000BF90AF900895EF92FF921F93CF93DF93E6
:1067F000CDB7DEB7A0970FB6F894DEBF0FBECDBF02
:10680000162F41E0BC01CE0101960E94581D7C016B
:10681000892B19F024C01123D9F0AE014F5F5F4FCF
:1068200060E587EA97E00E941E33892BA1F7CE012D
:1068300001960E94B125C701A0960FB6F894DEBF5D
:106840000FBECDBFDF91CF911F91FF90EF900895C4
:1068500087EA97E00E9437090E949109DECF81ED17
:106860009CE00E942609C7010E947333E0CF10927A
:106870000B0810920A081092FD071092FC07109264
:106880000508109204081092010810920008109256
:106890000908109208081092E0081092E10810927E
:1068A000E2081092E3081092F7071092F80710928E
:1068B000F90746E158E083E6FA0125E030E08083FD
:1068C0008183828383838483215031093596211506
:1068D0003105A9F7475E5F4F98E04339590761F7E3
:1068E000E3E9F8E083E680838183828383833496BF
:1068F00098E0EB3DF907B9F71092FF071092FE07F9
:1069000010921508109214081092030810920208B1
:106910001092FB071092FA0789E090E09093070825
:106920008093060808956F927F928F929F92AF9204
:10693000BF92CF92DF92EF92FF920F931F93CF936C
:10694000DF938091E0089091E108A091E208B09176
:10695000E3080196A11DB11D8093E0089093E10822
:10696000A093E208B093E308E0910408F0910508D1
:10697000EE0FFF1FEE0FFF1FE55EFE4F2081022E80
:10698000000C330B8091FE079091FF07A901480F7F
:10699000591F463051050CF06BC0A1810A2E000C26
:1069A000BB0BC0901408D0901508AD014C0D5D1DB7
:1069B000463051050CF05CC0A2800A2C000CBB08CC
:1069C0000091020810910308A501400F511F4630A5
:1069D00051050CF04DC01A141B040CF070C03801A6
:1069E00049E1489F4001499F900C1124EE24E39413
:1069F000F12C1A161B060CF05FC0A60161E070E0D6
:106A0000E301C80DD91D121613064CF5FA01EE0F5D
:106A1000FF1FEE0FFF1FE40FF51FEC0FFD1FEA5ED7
:106A2000F74F80E090E003C07996133689F5108126
:106A3000019628173907C1F7F1E0E0E0133609F0B5
:106A4000F0E08F2F9E2F6A177B073CF5133681F4F9
:106A50006F5F7F4F4F5F5F4F12161306BCF26A17CE
:106A60007B07B4F3EA14FB04ECF081E090E001C092
:106A700080E0DF91CF911F910F91FF90EF90DF9019
:106A8000CF90BF90AF909F908F907F906F90089520
:106A90006A177B076CF380E090E0EA14FB044CF784
:106AA000019731F78FEFE81AF80A8FEF681A780A22
:106AB0001A161B060CF4A1CFEA14FB049CF381E028
:106AC000D8CF2F923F924F925F926F927F928F9288
:106AD0009F92AF92BF92CF92DF92EF92FF920F936D
:106AE0001F93CF93DF93A0900408B0900508150181
:106AF000220C331C220C331CD101A55EBE4F129612
:106B00008C91129718160CF04CC011968C9011971E
:106B10004090FE075090FF07909014087090150861
:106B200060900208262D309103088150B9016F5FF3
:106B30007F4F7B01E80EF11C89E1849D8001859DDA
:106B4000100D1124CFEFC80DD0E018141CF5BC9027
:106B5000C92CD72CC6010196AE01480F591F200F32
:106B6000311F1B148CF4F601EE0FFF1FEE0FFF1FF9
:106B7000EC0DFD1DE20FF31FEA5EF74FD12CA08252
:106B8000D3947996BD10FBCF6C018417950711F053
:106B90000196E7CF9B016E157F0559F06F5F7F4F20
:106BA000D4CF4090FE075090FF079090140860905B
:106BB0000208E0910008F0910108EE0FFF1FEE0FB0
:106BC000FF1FED56F74FA082418292826382F1014E
:106BD000E55EFE4FE3810E2E000CFF0BE950F84FEF
:106BE00080818F5F8083DF91CF911F910F91FF9004
:106BF000EF90DF90CF90BF90AF909F908F907F905D
:106C00006F905F904F903F902F9008958F929F923A
:106C1000AF92BF92CF92DF92EF92FF920F931F93AA
:106C2000CF93DF93E0900008F0900108EE0CFF1C7A
:106C3000EE0CFF1CF701ED56F74F01818280A38116
:106C4000C0900408D0900508CC0CDD1CCC0CDD1CD9
:106C5000E601C55EDE4F9A8019148CF5B9800A2EC4
:106C6000000CBB0B89E1080280011124A12C23E652
:106C70001B140CF59881482D082C000C550B30E0A6
:106C8000B8016A0F7B1F19168CF4FA01EE0FFF1F73
:106C9000EE0FFF1FE40FF51FE60FF71FEA5EF74F39
:106CA00080E020838F5F79969813FBCF3F5F4F5F23
:106CB0005F4F3B11E8CFA39411969A10D9CFF701FB
:106CC000ED56F74F83E68083818382838383F601C9
:106CD000E55EFE4FE3810E2E000CFF0BE950F84FEE
:106CE000808181508083DF91CF911F910F91FF9020
:106CF000EF90DF90CF90BF90AF909F908F900895CE
:106D0000CF9340910208509103089091FE07809123
:106D1000FF073091140820911508C9E1632F722FE5
:106D2000DB01AA0FBB1FAA0FBB1FA60FB71F292F7E
:106D3000382FC29FC001C39F900D1124FA01EA0FA2
:106D4000FB1FE80FF91FEA5EF74F09C08081833609
:106D500031F12F5F3F4F79962530310571F1453084
:106D60005105A4F33093FF072093FE077093150895
:106D7000609314085093030840930208453051056E
:106D800061F484E090E0909303088093020881E02E
:106D900090E090930B0880930A08CF910895309368
:106DA000FF072093FE077093150860931408509313
:106DB000030840930208CF9108956F5F7F4F1596A7
:106DC00090E080E06530710509F0B1CF4F5F5F4F13
:106DD00030E020E0A3CFCF92DF92FF920F931F937A
:106DE000CF936091E0087091E1088091E208909162
:106DF000E30824EC39E040E050E00E94BB45672BFB
:106E0000682B692B31F58091FA079091FB07019669
:106E10008430910509F4DFC09093FB078093FA0753
:106E20001F9228E02F93FC01EE5EFE4F8081282FF9
:106E3000082E000C330B3F938F938DE792E09F93C6
:106E40008F930E94B6470F900F900F900F900F9066
:106E50000F902091FC073091FD07CC24C394D12CD6
:106E6000232B09F0A3C0E0910008F0910108EE0F78
:106E7000FF1FEE0FFF1FED56F74F2081022E000C73
:106E8000330B3093050820930408809106089091F5
:106E90000708C1E00CC02091FC073091FD07C0E05D
:106EA00021153105E9F62091040830910508821773
:106EB000930719F0C13009F043C0E0910008F09148
:106EC0000108EE0FFF1FEE0FFF1FED56F74F018178
:106ED0001281F3800E94063680910608909107087F
:106EE000209104083091050828173907A1F6209150
:106EF0000008309101082150310930930108209396
:106F000000082F3F4FEF3407A1F0220F331F220F4D
:106F1000331FF901ED56F74F2081022E000C330B81
:106F200030930508209304082091FC073091FD0759
:106F3000B7CFD092FD07C092FC0721E030E090CFA0
:106F40002F5F3F4F3093050820930408220F331F13
:106F5000220F331FF901E55EFE4F8381082E000CDE
:106F6000990BFC01E950F84FDC01A85EBE4F20816F
:106F70008C91281714F58091FC079091FD07892BBF
:106F8000A9F4802F000F990B9093FF078093FE07C1
:106F9000812F110F990B90931508809314088F2D52
:106FA000FF0C990B9093030880930208CF911F91D7
:106FB0000F91FF90DF90CF900895809100089091FD
:106FC0000108019790930108809300082091FC0725
:106FD0003091FD0745CF1092FB071092FA0780E031
:106FE00090E01ECF46E158E083E6FA0125E030E06C
:106FF0008083818382838383848321503109359602
:1070000021153105A9F7475E5F4F98E043395907CD
:1070100061F70895E3E9F8E083E680838183828362
:107020008383349698E0EB3DF907B9F70895EF9222
:10703000FF920F931F93CF93DF93809109088F9353
:10704000809108088F9382E892E09F938F930E942B
:10705000B647809193080F900F900F900F90833652
:10706000C1F0C7E9D8E004EA12E0282F082E000C8E
:10707000330B3F938F931F930F930E94B647249631
:10708000FE01349780810F900F900F900F90833600
:1070900061F7609176047091770480917804909103
:1070A000790424E630E040E050E00E9499452093C6
:1070B000DC083093DD084093DE085093DF088091B0
:1070C000100890911108A0911208B091130879014D
:1070D0008A01E81AF90A0A0B1B0BD801C701BF93F2
:1070E000AF939F93EF928091E3088F938091E20892
:1070F0008F938091E1088F938091E0088F9381E9CD
:1071000092E09F938F930E94B6470DB71EB7065F1C
:107110001F4F0FB6F8941EBF0FBE0DBFDF91CF916A
:107120001F910F91FF90EF900895EF92FF920F93B0
:107130001F93CF93DF931092DB08181619060CF0FB
:1071400062C08C01C9E0D0E036E0E32EF12C88EA81
:1071500092E00E94D3470E9437348091FC079091BF
:10716000FD07892B09F043C00E949334813009F454
:1071700051C08091040890910508019690930508EC
:1071800080930408FC01EE0FFF1FEE0FFF1FE55E6A
:10719000FE4F2381022E000C330BF901E950F84F0A
:1071A000D901A85EBE4F40812C914213D6CF8930C1
:1071B00091050CF04EC0D0930508C093040890913F
:1071C000F90780911A019813C8CF80910008909117
:1071D0000108019790930108809300080E94EB3604
:1071E0008091FC079091FD07892B09F4BDCF809118
:1071F000DB088F5F8093DB08082E000C990B80174B
:1072000091070CF4A4CFDF91CF911F910F91FF90C4
:10721000EF9008950E9461350E94803680910A089F
:1072200090910B08019709F441C09091F707809164
:107230001801981794F41092050810920408809190
:10724000000890910108019690930108809300082E
:1072500084CF099709F081CFB2CF9091F807809140
:107260001901981774F4F0920508E09204088091CF
:1072700000089091010801969093010880930008FE
:107280006CCF9091F90780911A0198170CF0A6CF56
:10729000D0930508C09304088091000890910108DC
:1072A0000196909301088093000857CF10920B0825
:1072B00010920A080E9417388091080890910908D6
:1072C000019690930908809308080E94EB3645CFF9
:1072D0008F929F92AF92BF92CF92DF92EF92FF92E6
:1072E0000F931F93CF93DF9321E035E03F932F93CC
:1072F00025EF31E03F932F939F938F930E94254872
:10730000609176047091770480917804909179046B
:1073100024E6C22ED12CE12CF12CA70196010E946B
:107320009945209310083093110840931208509308
:10733000130880910105082E000C990B0E949538C6
:10734000609176047091770480917804909179042B
:10735000A70196010E94994520930C0830930D08CF
:1073600040930E0850930F081F9288E08F938091EE
:107370001601282F082E000C330B3F938F938DE7B7
:1073800092E09F938F930E94B64780910C08909152
:107390000D08A0910E08B0910F084091100850916F
:1073A00011086091120870911308841B950BA60BAD
:1073B000B70BBF93AF939F938F9389EC92E09F930A
:1073C0008F930E94B647C0900C08D0900D08E090B3
:1073D0000E08F0900F088091100890911108A0916C
:1073E0001208B0911308C81AD90AEA0AFB0A809059
:1073F0000105082C000C9908AA08BB08C701B601B2
:10740000A50194010E94BB45E901142F052FCC0C66
:10741000DD1CEE1CFF1CD701C601880F991FAA1F97
:10742000BB1F880F991FAA1FBB1FBC01CD016C0D8C
:107430007D1D8E1D9F1DA50194010E94BB45CE019F
:10744000A12FB02F880F991FAA1FBB1F6C017D01B0
:10745000CC0CDD1CEE1CFF1CCC0CDD1CEE1CFF1C40
:107460008C0D9D1DAE1DBF1D69017A01C81AD90A78
:10747000EA0AFB0AD701C601BF93AF939F93CF924D
:107480000F931F93DF93CF9385EE92E09F938F939B
:107490000E94B6478091E3088F938091E2088F9312
:1074A0008091E1088F938091E0088F9381E193E0D0
:1074B0009F938F930E94B6478DB79EB782960FB663
:1074C000F8949EBF0FBE8DBFDF91CF911F910F919A
:1074D000FF90EF90DF90CF90BF90AF909F908F90F4
:1074E00008950F931F935B9884EE98E00E942240CA
:1074F0006093E6087093E7088093E8089093E908A2
:10750000E091E408F091E5088F0120E030E0AC0163
:1075100066277727041715072607370709F46CC075
:10752000CF0190934401809343015B9A8BE69EE0E8
:107530000E9426095B9B69C08EE59EE00E94260999
:107540000E94910984E49EE00E94260967E170E1AF
:1075500081E290E20E9462090E94910980914305B4
:107560008F93809142058F93809141058F938091F5
:1075700040058F9382E293E09F938F930E94B647DA
:1075800080913F058F9380913E058F9388E393E030
:107590009F938F930E94B64784E39EE00E94260942
:1075A000809144010E944E0982E39EE00E942609D8
:1075B000809143010E944E098FE29EE00E942609BD
:1075C0008DB79EB70A960FB6F8949EBF0FBE8DBFBB
:1075D00080914401803109F465C0E0F0803209F403
:1075E0003FC08A3A09F459C0813109F446C082EAA1
:1075F0009DE00E9426091CC08AEA9AEA9093E50859
:107600008093E4088AEA9AEA8CCF85E59EE00E949E
:10761000260996CF8823B1F1853049F781E19EE0B4
:107620000E94260988E09EE00E9426090E945D4093
:107630008FE99DE00E9426090E94910980E99DE062
:107640000E9426096091E6087091E7088091E80899
:107650009091E9080E9462091F910F910C94910981
:107660008FED9DE00E94260980914301811127C082
:107670008BED9DE00E942609DBCF8FEA9DE00E9402
:107680002609D6CF83E29EE00E9426098DE19EE086
:107690000E9426090E945D40CBCF8DEB9DE00E94A9
:1076A0002609C6CF80E09EE00E9426098091430112
:1076B00081110AC081EF9DE00E942609B9CF83EDB8
:1076C0009DE00E942609B4CF89EE9DE00E94260924
:1076D000AFCFAF92BF92CF92DF92EF92FF920F9314
:1076E0001F93CF93DF93CDB7DEB728970FB6F894EB
:1076F000DEBF0FBECDBFD82EC92EF62EE72E5B986B
:107700000E94ED0BCE0105969F938F9300E513E049
:107710001F930F93CF92DF920E942548CE010196CE
:107720009F938F931F930F93EF92FF920E94254890
:1077300088B1806E88B90E94DB3F8D819E810E9456
:1077400017409F938F9384E593E09F938F930E94BC
:10775000B6470E94DB3F87E190E00E9417409F936D
:107760008F938FE593E09F938F930E94B6478C8110
:107770008F938B818F938A818F9389818F938D8152
:107780009E81AF81B885BA2FA92F982F8827BF93E4
:10779000AF939F938F9388E693E09F938F930E947C
:1077A000B64788E793E00E94D3470FB6F894DEBF50
:1077B0000FBECDBF89819A81AB81BC81892B8A2B79
:1077C0008B2B09F44BC0C12CD12C760133E8A32EAE
:1077D00033E0B32E0CE813E01CC08EEF9FEA0E944A
:1077E00017409F938F931F930F930E94B6479FEF6D
:1077F000C91AD90AE90AF90A0F900F900F900F9051
:1078000089819A81AB81BC81C816D906EA06FB063C
:1078100028F5D701C60187709927AA27BB27892B8E
:107820008A2B8B2BD1F68D819E81AF81B885BA2FA3
:10783000A92F982F88278C0D9D1DAE1DBF1DBF93AE
:10784000AF939F938F93BF92AF920E94B6470F90D2
:107850000F900F900F900F900F90BFCF88B1806E58
:1078600088B98AE090E00E94CC4728960FB6F89439
:10787000DEBF0FBECDBFDF91CF911F910F91FF9063
:10788000EF90DF90CF90BF90AF900895CF92DF92AE
:10789000EF92FF920F931F93CF93DF93CDB7DEB795
:1078A000AC970FB6F894DEBF0FBECDBFD62EC72E55
:1078B000F42EE52E9E012B5D3F4F3F932F9300E565
:1078C00013E01F930F939F938F930E942548CE013F
:1078D00081969F938F931F930F93CF92DF920E9475
:1078E000254869E775E080E00E94401D4AE06F2D61
:1078F0007E2DCE0101960E94581D5B9888B1806E46
:1079000088B90E94ED0B0E94DB3F8DA19EA10E94D1
:1079100017400E94DB3F87E190E00E941740EF9202
:10792000FF928CA18F938BA18F938AA18F9389A1B2
:107930008F938DA19EA1AFA1B8A5BA2FA92F982F83
:107940008827BF93AF939F938F9382E993E09F9390
:107950008F930E94B64786EA93E00E94D3470FB602
:10796000F894DEBF0FBECDBF89A19AA1ABA1BCA187
:10797000892B8A2B8B2B09F444C0C12CD12C760186
:107980000EC09FEFC91AD90AE90AF90A89A19AA17A
:10799000ABA1BCA1C816D906EA06FB0690F58EEF8E
:1079A0009FEA0E9417409827892798279AA789A7B6
:1079B0009E01255D3F4F42E050E0BE01675D7F4F75
:1079C000CE0101960E947922D701C6019F70AA2795
:1079D000BB27892B8A2B8B2BA1F681E89DE00E9487
:1079E0002609D701C60129E0B695A79597958795F1
:1079F0002A95D1F70E9459098CE79DE00E9426093B
:107A0000C0CF81EB93E00E94D34788B1806E88B9E4
:107A1000CE0101960E94B125AC960FB6F894DEBF58
:107A20000FBECDBFDF91CF911F910F91FF90EF90CF
:107A3000DF90CF900895CF92DF92EF92FF92CF9395
:107A4000DF93CDB7DEB7A8970FB6F894DEBF0FBEB1
:107A5000CDBFF62EE72E9E012F5D3F4F3F932F9314
:107A600020E533E03F932F939F938F930E94254807
:107A700069E775E080E00E94401D41E06F2D7E2D9A
:107A8000CE0101960E94581D0F900F900F900F90FD
:107A90000F900F90892B09F08FC05B9888B1806E92
:107AA00088B90E94ED0B0E94DB3F89A19AA10E9438
:107AB00017400E94DB3F80E290E00E941740EF9267
:107AC000FF9289A19AA1ABA1BCA1BA2FA92F982F8F
:107AD0008827BF93AF939F938F938CEC93E09F93F2
:107AE0008F930E94B6478AED93E00E94D3470FB66A
:107AF000F894DEBF0FBECDBFC12CD12C76019E0104
:107B0000295D3F4F42E050E0BE016B5D7F4FCE01EB
:107B100001960E9496208FA198A5029749F58DA104
:107B20009EA19827892798270E9417409FEFC91A7E
:107B3000D90AE90AF90AD701C6019F70AA27BB270B
:107B4000892B8A2B8B2BD9F68DE69DE00E94260986
:107B5000D701C60129E0B695A795979587952A95EF
:107B6000D1F70E94590988E69DE00E942609C7CFF7
:107B700088B1806E88B9CE0101960E94B125FF922E
:107B8000EF92DF92CF9286EE93E09F938F930E94C5
:107B9000B6470F900F900F900F900F900F90A896F0
:107BA0000FB6F894DEBF0FBECDBFDF91CF91FF902F
:107BB000EF90DF90CF9008958FEB93E00E94D34732
:107BC000EECF5B9888B1806E88B90E94ED0B0E9461
:107BD000DB3F80E090E00E9417400E94DB3F80E1A5
:107BE00090E00E94174081E094E00E94D34788B162
:107BF000806E88B908954F925F926F927F928F92B4
:107C00009F92AF92BF92CF92DF92EF92FF920F932B
:107C10001F93CF93DF93CDB7DEB7A3970FB6F8943A
:107C2000DEBF0FBECDBF182F092F69E775E080E0DA
:107C30000E94401D43E0612F702FCE0101960E94EB
:107C4000581D009709F0AEC08B849C84AD84BE841F
:107C5000BF92AF929F928F928EE394E09F938F9307
:107C60000E94B6475B980F900F900F900F900F9067
:107C70000F908EE59DE00E9426090E94DF3F88E577
:107C80009DE00E94260988B18F7188B914E08AEAC4
:107C90000E94F03F8BA3FE2CED2CDC2CCC24C82AB8
:107CA0001150A9F7260137017724D701C60188278B
:107CB0009927AA27BF771B2FB23009F49AC0B301C6
:107CC000A20189E0440F551F661F771F8A95D1F7DF
:107CD00084169506A606B70608F49FC0CE01019645
:107CE0000E94BD25892B09F093C011112AC087E29B
:107CF0009DE00E942609C301B2010E9462090E9410
:107D0000E13F00E012E09E012F5D3F4F41E050E077
:107D1000BE016D5D7F4FCE0101960E9496200E94AC
:107D2000DF3F8BA10E94F03F0E94E13F015011090B
:107D300051F788B1806E88B98BE19DE00E942609D9
:107D400098CF83E29DE00E942609C301B2010E9400
:107D500062090E94E13F00E012E00E94DF3F8EEEE8
:107D60000E94F03F8BA39E012F5D3F4F41E050E00A
:107D7000BE016D5D7F4FCE0101960E9479220E9467
:107D8000E13F0150110949F70E949109CE01019686
:107D90000E94F72488B1806E88B98BE19DE00E9433
:107DA000260967CF9F938F930F931F9388E294E0E8
:107DB0009F938F930E94B6470F900F900F900F9054
:107DC0000F900F90A3960FB6F894DEBF0FBECDBFF5
:107DD000DF91CF911F910F91FF90EF90DF90CF90A7
:107DE000BF90AF909F908F907F906F905F904F90DB
:107DF00008958BE49DE00E9426090E94E13F88B12E
:107E0000806E88B95B9ACE0101960E94B125DACFC7
:107E10008BE29DE00E942609F2CF8BE39DE00E9459
:107E20002609C701B6010E9462090E9491090E94B9
:107E3000E13FE5CFCF92DF92EF92FF92CF93DF93B6
:107E4000CDB7DEB7A8970FB6F894DEBF0FBECDBF93
:107E50007B019E012F5D3F4F3F932F9320E533E041
:107E60003F932F939F938F930E94254869E775E076
:107E700080E00E94401D41E0B701CE0101960E94C2
:107E8000581D0F900F900F900F900F900F90892B0F
:107E900009F080C05B988BE494E00E94D347C12C2A
:107EA000D12C76019E01295D3F4F42E050E0BE019A
:107EB0006B5D7F4FCE0101960E9496208FA198A501
:107EC000029709F046C0479889A19AA1ABA1BCA12D
:107ED000BC01CD016C0D7D1D8E1D9F1D0E941740A4
:107EE00089A19AA18C0D9D1D0E94174088B1806EBA
:107EF00088B988B18F7588B98DA19EA198278927E7
:107F000098270E94174088B1806E88B98FEFC81AF1
:107F1000D80AE80AF80AD701C6019F70AA27BB272A
:107F2000892B8A2B8B2B09F0BDCF8CE09DE00E9422
:107F30002609D701C60129E0B695A795979587959B
:107F40002A95D1F70E94590987E09DE00E942609F1
:107F5000A9CFCE0101960E94B125FF92EF92DF9248
:107F6000CF9285E594E09F938F930E94B6470F9040
:107F70000F900F900F900F900F90A8960FB6F89457
:107F8000DEBF0FBECDBFDF91CF91FF90EF90DF90AE
:107F9000CF9008958FEB93E00E94D347EECF5B9A8A
:107FA000539A88B1806E88B987B1806E87B98AB1DB
:107FB000806A8AB90895079BFECF81E008950C94EA
:107FC000DB3F0000000000000000409A00000000BD
:107FD000000000004098000000000000000008952C
:107FE000282F98E080E009C05F98220F5D9A880FE3
:107FF0004E9981605D98915021F027FFF5CF5F9AEF
:10800000F4CF0895AC0120E180E090E00BC05F98D0
:10801000440F551F5D9A880F991F4E9981605D9896
:10802000215021F057FFF3CF5F9AF2CF0895CF93FD
:10803000DF930E940240EC010E94E13FCE01DF91FC
:10804000CF910895CF92DF92EF92FF92CF93DF937B
:10805000EC0145988FEF0E94F03F20E030E0309136
:1080600002057901E82A8FEF0E94F03F3E2D22277A
:10807000282B30930305209302053983288388B188
:10808000806E88B94598C4E0C12CD12C76018FEF61
:108090000E94F03FFE2CED2CDC2CCC24C82AC150D1
:1080A000B1F788B1806E88B9C701B601DF91CF9171
:1080B000FF90EF90DF90CF90089580914301803141
:1080C000B9F060F0803231F0803371F48DE89EE0D9
:1080D0000C94260985E99EE00C942609811104C0C0
:1080E0008DE79EE00C94260985E79EE00C94260916
:1080F00085E89EE00C942609A0E1B0E0E2E8F0E417
:108100000C94F4457C011B016A01FC011782168264
:10811000838181FF44C39E012F5F3F4F3901F701E7
:108120009381F10193FD859193FF81911F01882334
:1081300009F431C3853239F493FD859193FF819120
:108140001F01853239F4B70190E00E947A47560149
:108150006501E5CF10E0512C912CFFE1F915D8F025
:108160008B3279F038F4803279F08332A1F4F92D32
:10817000F0612EC08D3261F0803369F4292D2160C9
:108180002DC0392D3260932E892D8460982E2AC0FF
:10819000E92DE86015C097FC2DC020ED280F2A308E
:1081A00088F496FE06C03AE0139F200D1124122F8A
:1081B00019C08AE0589E200D1124522EE92DE0624C
:1081C0009E2E10C08E3231F496FCE5C2F92DF0647B
:1081D0009F2E08C08C3621F4292D2068922E02C0D3
:1081E000883641F4F10193FD859193FF81911F0140
:1081F0008111B3CF9BEB980F933020F4992D9061B0
:10820000805E07C09BE9980F933008F066C1992DF6
:108210009F7E96FF16E09F73992E853619F4906421
:10822000992E08C0863621F4392F3068932E02C06B
:108230001111115097FE07C01C3350F4442443948D
:10824000410E27E00BC0183038F027E017E005C0DA
:1082500027E09CE3492E02C0212F412C560184E0E7
:10826000A80EB11CF6016081718182819381042D79
:10827000A3010E943F466C01F981FC87F0FF02C018
:10828000F3FF06C091FC06C092FE06C000E205C0E6
:108290000DE203C00BE201C000E08C858C7019F088
:1082A00001115AC29BC297FE10C04C0CFC85F4FF12
:1082B00004C08A81813309F44A94141474F528E0C7
:1082C000241578F588E0482E2CC096FC2AC0812F12
:1082D00090E08C159D059CF03CEFC3163FEFD30654
:1082E00074F0892D8068982E0AC0E2E0F0E0EC0F6F
:1082F000FD1FE10FF11D8081803319F41150111120
:10830000F4CF97FE0EC044244394410E812F90E099
:10831000C816D9062CF41C1904C04424439401C087
:1083200010E097FE06C01C141D0434F4C60101962B
:1083300005C085E090E002C081E090E00111019667
:10834000112331F0212F30E02F5F3F4F820F931F19
:10835000252D30E08217930714F4581A01C0512CD0
:10836000892D897049F4552039F0B70180E290E0F9
:108370000E947A475A94F7CF002329F0B701802F43
:1083800090E00E947A4793FC09C0552039F0B7016C
:1083900080E390E00E947A475A94F7CF97FE4CC052
:1083A0004601D7FE02C0812C912CC601881999097B
:1083B000F301E80FF91FFE87ED87960124193109B3
:1083C000388B2F87012F10E01195019511093FEF90
:1083D0008316930629F4B7018EE290E00E947A4753
:1083E000C814D9044CF08F8598898815990524F410
:1083F000ED85FE85818101C080E3F1E08F1A91084F
:108400002D853E852F5F3F4F3E872D878016910635
:108410002CF0B70190E00E947A47D9CFC814D90454
:1084200041F49A81963320F4953319F43C8534FF56
:1084300081E3B70190E04EC08A81813319F09C85B9
:108440009F7E9C87B70190E00E947A47111105C07A
:1084500094FC18C085E690E017C0B7018EE290E06A
:108460000E947A471E5F82E001E0080FF301E80FE7
:10847000F11D8081B70190E00E947A47802F01139F
:10848000F3CFE6CF85E490E0B7010E947A47D7FCAE
:1084900006C0C114D10441F4EC85E4FF05C0D194B9
:1084A000C194D1088DE201C08BE2B70190E00E9437
:1084B0007A4780E32AE0C216D1042CF08F5FFAE0FD
:1084C000CF1AD108F7CFB70190E00E947A47B701E1
:1084D000C601C0960E947A4754C1833631F0833773
:1084E00079F0833509F056C020C0560132E0A30E62
:1084F000B11CF6018081898301E010E0630112C0A4
:108500005601F2E0AF0EB11CF601C080D18096FE9C
:1085100003C0612F70E002C06FEF7FEFC6010E94C1
:1085200048478C01F92DFF7714C0560122E0A20EB6
:10853000B11CF601C080D18096FE03C0612F70E0AF
:1085400002C06FEF7FEFC6010E942F478C01F92D0B
:10855000F0689F2EF3FD1AC0852D90E008171907CB
:10856000A8F4B70180E290E00E947A475A94F4CFD1
:10857000F60197FC859197FE81916F01B70190E01C
:108580000E947A4751105A940150110901151105A2
:1085900079F7F7C0843611F0893661F5560197FEF8
:1085A00009C024E0A20EB11CF601608171818281B4
:1085B00093810AC0F2E0AF0EB11CF60160817181B7
:1085C000072E000C880B990BF92DFF769F2E97FF35
:1085D00009C090958095709561957F4F8F4F9F4F03
:1085E000F0689F2E2AE030E0A3010E943E48C82E8A
:1085F000C6183FC0092D853721F40F7E2AE030E0F0
:108600001DC0097F8F3691F018F4883559F0C3C02A
:10861000803719F0883711F0BEC0006104FF09C02F
:10862000046007C094FE08C0066006C028E030E081
:1086300005C020E130E002C020E132E0560107FF32
:1086400009C084E0A80EB11CF601608171818281AD
:10865000938108C0F2E0AF0EB11CF6016081718118
:1086600080E090E0A3010E943E48C82EC6180F7714
:10867000902E96FE0BC0092D0E7FC11650F494FE6D
:108680000AC092FC08C0092D0E7E05C0DC2C092D05
:1086900003C0DC2C01C0D12E04FF0DC0FE01EC0D87
:1086A000F11D8081803311F4097E09C002FF06C0EC
:1086B000D394D39404C0802F867809F0D39403FD1B
:1086C00011C000FF06C01C2DD51480F4150D1D1916
:1086D0000DC0D51458F4B70180E290E00E947A47AB
:1086E000D394F7CFD51410F45D1801C0512C04FFBA
:1086F00010C0B70180E390E00E947A4702FF17C0E4
:1087000001FD03C088E790E002C088E590E0B70172
:108710000CC0802F867859F001FF02C08BE201C0A7
:1087200080E207FD8DE2B70190E00E947A47C11612
:1087300038F4B70180E390E00E947A471150F7CFF8
:10874000CA94F301EC0DF11D8081B70190E00E9405
:108750007A47C110F5CF15C0F4E0F51560F584E057
:10876000581A93FE1FC0011127C02C8523FF2AC071
:1087700000E710E0392D3071932EF80184918111BA
:1087800024C0552009F4E4CCB70180E290E00E94B7
:108790007A475A94F6CFF7018681978126C08FEFEA
:1087A0009FEF23C0B70180E290E00E947A475A947D
:1087B0005110F8CFD8CF512CB701802F90E00E94F4
:1087C0007A47D3CF04E710E0D5CF91108052B7019C
:1087D00090E00E947A470F5F1F4FCFCF23E025150F
:1087E00010F483E0BDCF512CC0CF6096E2E10C9431
:1087F000104684E690E00E946E07209A83E0289855
:108800002FEF39E698E1215030409040E1F700C069
:108810000000289A2FEF39E698E12150304090402F
:10882000E1F700C00000815051F70E94CF3F40980F
:10883000389A89E10E9499080E94A9088DED92E07A
:108840000E9426090E94E80B84EC92E00E9426090F
:1088500048E050E068EF77EF8DED94E00E94174715
:108860008091DD049091DE04A091DF04B091E004DA
:108870008093400590934105A0934205B093430532
:108880008091E1049091E20490933F0580933E052E
:1088900082EB92E00E94260980E091E09093ED083F
:1088A0008093EC080E94713A80914401803241F03B
:1088B00080E00E94C52A0E9453310E94BD31FBCF47
:1088C00080E00E94590C64E670E080E090E00E9435
:1088D000290881E00E94590C0E949109E9CF0E9469
:1088E000A34408F481E008950E94CF4488F09F5784
:1088F00098F0B92F9927B751B0F0E1F0660F771FC4
:10890000881F991F1AF0BA95C9F714C0B13091F0B9
:108910000E94E944B1E008950C94E944672F782F50
:108920008827B85F39F0B93FCCF38695779567957E
:10893000B395D9F73EF490958095709561957F4FEA
:108940008F4F9F4F0895990F0008550FAA0BE0E82D
:10895000FEEF16161706E807F907C0F01216130601
:10896000E407F50798F0621B730B840B950B39F441
:108970000A2661F0232B242B252B21F408950A26A7
:1089800009F4A140A6958FEF811D811D089557FD23
:108990009058440F551F59F05F3F71F04795880F6D
:1089A00097FB991F61F09F3F79F087950895121604
:1089B00013061406551FF2CF4695F1DF08C01616B0
:1089C00017061806991FF1CF869571056105089461
:1089D0000895E894BB2766277727CB0197F9089578
:1089E0000E9403450C9474450E94664538F00E942D
:1089F0006D4520F0952311F00C945D450C94634572
:108A000011240C94EA440E94C74470F3959FC1F36B
:108A1000950F50E0551F629FF001729FBB27F00D2C
:108A2000B11D639FAA27F00DB11DAA1F649F662781
:108A3000B00DA11D661F829F2227B00DA11D621FD0
:108A4000739FB00DA11D621F839FA00D611D221F8A
:108A5000749F3327A00D611D231F849F600D211D6E
:108A6000822F762F6A2F11249F5750409AF0F1F0F1
:108A700088234AF0EE0FFF1FBB1F661F771F881F5A
:108A800091505040A9F79E3F510580F00C945D45F0
:108A90000C94EA445F3FE4F3983ED4F386957795CF
:108AA0006795B795F795E7959F5FC1F7FE2B880F00
:108AB000911D9695879597F9089597F99F6780E896
:108AC00070E060E008959FEF80EC089500240A9420
:108AD0001616170618060906089500240A94121699
:108AE0001306140605060895092E0394000C11F4CC
:108AF000882352F0BB0F40F4BF2B11F460FF04C079
:108B00006F5F7F4F8F4F9F4F089597FB072E16F48F
:108B1000009407D077FD09D00E942B4607FC05D0B2
:108B20003EF4909581959F4F0895709561957F4F84
:108B30000895A1E21A2EAA1BBB1BFD010DC0AA1F9E
:108B4000BB1FEE1FFF1FA217B307E407F50720F0B6
:108B5000A21BB30BE40BF50B661F771F881F991F31
:108B60001A9469F760957095809590959B01AC017A
:108B7000BD01CF010895052E97FB1EF400940E94BD
:108B8000D24557FD07D00E94994507FC03D04EF40B
:108B90000C94D24550954095309521953F4F4F4FBD
:108BA0005F4F089590958095709561957F4F8F4F99
:108BB0009F4F0895A29FB001B39FC001A39F700D66
:108BC000811D1124911DB29F700D811D1124911DD5
:108BD00008950E94DA45A59F900DB49F900DA49F23
:108BE000800D911D112408952F923F924F925F9214
:108BF0006F927F928F929F92AF92BF92CF92DF92AD
:108C0000EF92FF920F931F93CF93DF93CDB7DEB711
:108C1000CA1BDB0B0FB6F894DEBF0FBECDBF0994A5
:108C20002A88398848885F846E847D848C849B84FC
:108C3000AA84B984C884DF80EE80FD800C811B810A
:108C4000AA81B981CE0FD11D0FB6F894DEBF0FBE39
:108C5000CDBFED010895AA1BBB1B51E107C0AA1FA0
:108C6000BB1FA617B70710F0A61BB70B881F991FCD
:108C70005A95A9F780959095BC01CD0108952830AB
:108C800008F027E03327DA01990F311D87FD916045
:108C900000966105710539F432602E5F3D9330E333
:108CA0002A95E1F708959F3F30F0803871056105FE
:108CB00009F03C5F3C5F3D93913008F08068911D66
:108CC000DF93CF931F930F93FF92EF92192F987F0B
:108CD0009695E92F96959695E90FFF27EE52FF4F4F
:108CE00099273327EE24FF24A701E7010590089474
:108CF000079428F4360FE71EF81E491F511D660F12
:108D0000771F881F991F0694A1F70590079428F4F0
:108D1000E70EF81E491F561FC11D770F881F991FA8
:108D2000661F0694A1F70590079428F4F80E491FD2
:108D3000561FC71FD11D880F991F661F771F0694E6
:108D4000A1F70590079420F4490F561FC71FD81F9D
:108D5000990F661F771F881F0694A9F784911095B5
:108D6000177041F0D695C79557954795F794E794B6
:108D70001A95C1F7E8E7F0E06894159015913591E0
:108D80006591959105907FE27395E118F10A430B87
:108D9000560BC90BD009C0F7E10CF11E431F561F3B
:108DA000C91FD01D7EF4703311F48A95E6CFE89484
:108DB000015030F0080F0AF40027021708F4202FA2
:108DC0002395022F7A3328F079E37D932A95E9F7EA
:108DD00010C07D932A9589F60694979567953795E7
:108DE00017951794E118F10A430B560BC90BD009DC
:108DF00098F023957E9173957A3308F070E37C9315
:108E00002013B8F77E9170617D9330F0839571E304
:108E10007D9370E32A95E1F71124EF90FF900F9175
:108E20001F91CF91DF91992787FD90950895FB01C0
:108E3000DC0102C005900D9241505040D8F70895D2
:108E4000FB01DC014150504048F005900D9200209C
:108E5000C9F701C01D9241505040E0F70895FC0150
:108E60000590615070400110D8F7809590958E0F55
:108E70009F1F0895FB01DC014150504030F08D915F
:108E80000190801919F40020B9F7881B990B0895F7
:108E9000FC016150704001900110D8F780959095C9
:108EA0008E0F9F1F0895FA01A191B081009719F4C8
:108EB0001097E1F0CD01DC01CD010D90002011F4FF
:108EC000C00113C0FB012191222319F02015D9F70D
:108ED000F3CFFB012191201519F41E92119606C0C3
:108EE0002223C1F70D900020A1F7D001FA01A19330
:108EF000B08308950F931F93CF93DF93FB012381DA
:108F000021FD03C08FEF9FEF2CC022FF16C04681CA
:108F10005781248135814217530744F4A081B181E0
:108F20009D012F5F3F4F318320838C9326813781B2
:108F30002F5F3F4F3783268314C08B01EC01FB0169
:108F40000084F185E02D0995892BE1F6D80116966C
:108F50008D919C911797019617969C938E931697D7
:108F6000CE01DF91CF911F910F910895A0E0B0E065
:108F7000ECEBF7E40C940446AE014B5F5F4FFA0153
:108F800061917191AF018091EC089091ED080E9480
:108F90007C40E2E00C9420466091EC087091ED0872
:108FA0000E947A4708950F931F93CF93DF93E09128
:108FB000EC08F091ED08238121FF1BC08C01D0E06B
:108FC000C0E0F80181918F016091EC087091ED088B
:108FD000DB011896ED91FC911997882331F00995E2
:108FE000892B79F3DFEFCFEFECCF8AE00995892B5E
:108FF00019F08FEF9FEF02C08D2F9C2FDF91CF9143
:109000001F910F910895AEE0B0E0E9E0F8E40C9410
:1090100002460D891E8986E08C831A8309838FEFAF
:109020009FE79E838D83AE01475E5F4F6F89788D8A
:10903000CE0101960E947C40EF81F885E00FF11F80
:1090400010822E96E4E00C941E46AEE0B0E0EBE217
:10905000F8E40C94044685E08C838B899C899A8380
:109060008983AE01495E5F4F6D897E89CE0101968D
:109070000E94384A2E96E2E00C942046FA01AA2774
:10908000283051F1203181F1E8946F936E7F6E5F4B
:109090007F4F8F4F9F4FAF4FB1E03ED0B4E03CD0F9
:1090A000670F781F891F9A1FA11D680F791F8A1FDC
:1090B000911DA11D6A0F711D811D911DA11D20D043
:1090C00009F468943F912AE0269F11243019305DFD
:1090D0003193DEF6CF010895462F4770405D4193EE
:1090E000B3E00FD0C9F7F6CF462F4F70405D4A333B
:1090F00018F0495D31FD4052419302D0A9F7EACF03
:10910000B4E0A6959795879577956795BA95C9F731
:1091100000976105710508959B01AC010A2E069424
:109120005795479537952795BA95C9F7620F731FDD
:10913000841F951FA01D089520FD09C0FC0123FD7B
:1091400005C022FF02C07383628351834083089568
:1091500044FD17C046FD17C0AB01BC01DA01FB019D
:10916000AA0FBB1FEE1FFF1F1094D1F74A0F5B1F02
:109170006E1F7F1FCB01BA01660F771F881F991FD3
:1091800009C033E001C034E0660F771F881F991FC4
:109190003150D1F7620F711D811D911D08950F93FC
:1091A0001F93CF93DF938C01C8010E945D4BEC01AC
:1091B00097FD08C00E94494B892BB1F7B801CE0139
:1091C0000E949B4BCE01DF91CF911F910F9108958B
:1091D0008F929F92AF92BF92EF92FF920F931F9345
:1091E000CF93DF938C01D62F7A01B22E0E945D4B74
:1091F0009C0133272B32310531F02D32310561F4DA
:109200008B2D8068B82ED15011F480E068C0C80161
:109210000E945D4B97FDF9CFCB2DCD7F2B2D207379
:1092200009F58033F9F4AA24AA94AD0E09F443C0D9
:10923000C8010E945D4B97FD3EC09C012F7D3327E6
:109240002835310549F4C264D250A9F1C8010E9401
:109250005D4B97FF07C02FC0B6FE02C0C26001C0C1
:10926000C261DA2D812C912C540120ED280F283079
:1092700080F0C4FF04C0B8010E949B4B19C02A3083
:1092800040F0C6FFF8CF2F7D3FEE320F363098F713
:1092900027504C2FC501B4010E94A8484B015C0126
:1092A000C260D15059F0C8010E945D4B97FFDDCFDD
:1092B000C1FD04C0AACF812C912C5401C7FF08C066
:1092C000B094A09490948094811C911CA11CB11C1A
:1092D0002C2FB501A401C7010E949C4881E0DF91B9
:1092E000CF911F910F91FF90EF90BF90AF909F9003
:1092F0008F900895A0E2B0E0E0E8F9E40C94F7451F
:109300005C01962E7A01F9018E010F5F1F4F6801F3
:1093100080E2D8011D928A95E9F7D50113968C90C9
:1093200080E090E0612C712C30E061E070E083FC23
:10933000259183FE21918F01522E211103C080E0DF
:1093400090E092C02E3511F4009751F1432F50E078
:10935000481759073CF42D3559F12D3219F477206F
:1093600009F103C0772009F46AC0452D469546955A
:109370004695D601A40FB11D452D47708B0102C043
:10938000000F111F4A95E2F7A8015C91452B4C9301
:10939000651459F0561410F45394E7CF5A94E5CF5E
:1093A00031E004C07724739401C0712C0196BFCFC3
:1093B000772019F08E8180628E83311103C088245A
:1093C000839417C0F6019E012F5D3F4F80818095E9
:1093D00081932E173F07D1F7F2CFE114F10429F062
:1093E000D7018C93F70131967F019A94812C9920B3
:1093F000F9F0C5010E945D4B97FD18C0FC01FF27E5
:1094000023E0F595E7952A95E1F7EC0DFD1D208108
:1094100030E0AC014770552702C0359527954A9535
:10942000E2F720FDDACFB5010E949B4B811087CF78
:10943000E114F10411F0D7011C92C80115C0422FAC
:10944000469546954695D601A40FB11D422F47700B
:109450008B0102C0000F111F4A95E2F7A8015C9131
:10946000452B4C93622EA2CFA096EFE00C941346AE
:10947000A0E0B0E0EEE3FAE40C94F7456C01EB01F8
:109480005A01FC0117821682512CF601E380FE017D
:10949000E3FC8591E3FE8191182FEF01882309F405
:1094A000EEC090E00E94494B892B21F0C6010E943A
:1094B000CF48EBCF153241F4FE01E3FC1591E3FEFA
:1094C0001191EF01153281F4C6010E945D4B97FDA9
:1094D000D4C0412F50E09C01332724173507A9F24F
:1094E000B6010E949B4BCBC01A3239F4E3FC1591B4
:1094F000E3FE1191EF0101E001C000E0F12C20ED4D
:10950000210F2A3080F402606F2D70E080E090E03F
:1095100040E20E94A848F62EFE01E3FC1591E3FE0E
:109520001191EF01ECCF01FF03C0F11003C0A7C000
:10953000FF24FA94183619F01C3651F010C0FE01C1
:10954000E3FC1591E3FE1191EF01183641F4086038
:109550000460FE01E3FC1591E3FE1191EF0111237C
:1095600009F48DC0612F70E082E791E00E94524BB8
:10957000892B09F484C000FD07C0F501808091802B
:10958000C50102965C0102C0812C912C1E3651F45B
:10959000F6014681578160E070E0202FC4010E94EF
:1095A0009C4873CF1336A9F401FD02C0FF24F39445
:1095B000C6010E945D4B97FD60C08114910429F0A3
:1095C000F4018083C40101964C01FA94F110F0CFAC
:1095D00050C01B3559F49E01A4016F2DC6010E9495
:1095E0007A49EC01892B09F044C03EC0C6010E94B3
:1095F000CF4897FD42C01F3661F128F4143639F187
:10960000193651F128C0133771F0153701F123C015
:109610008114910429F0F4016082C40101964C0187
:10962000FA94FF2071F0C6010E945D4B3C0197FD4A
:1096300008C00E94494B892B59F3B601C3010E940F
:109640009B4B81149104A9F0F401108212C00062B6
:1096500003C0006101C00064202FA4016F2DC6016A
:109660000E94E848811105C0F6018381807329F4C6
:1096700006C000FD0ACF539408CF552019F0852D60
:1096800090E002C08FEF9FEFCDB7DEB7EFE00C9414
:10969000134691110C94B44B803219F089508550C7
:1096A000C8F70895FC010590061621F00020D9F7AF
:1096B000C00108953197CF010895CF93DF93EC0156
:1096C0002B8120FF33C026FF0AC02F7B2B838E8186
:1096D0009F8101969F838E838A8190E029C022FF1B
:1096E0000FC0E881F9818081082E000C990B00974A
:1096F00019F420622B831AC03196F983E8830EC0D7
:10970000EA85FB85099597FF09C02B81019611F029
:1097100080E201C080E1822B8B8308C02E813F81D3
:109720002F5F3F4F3F832E83992702C08FEF9FEF1C
:10973000DF91CF910895FB01238120FF12C026FD08
:1097400010C08F3F3FEF930761F082832F7D20642D
:109750002383268137812150310937832683992736
:1097600008958FEF9FEF0895992788270895F8941B
:02977000FFCF29
:1097720000000002000000001109000000000100CA
:1097820000007C2F2D5C2000060605040201000467
:1097920001020002040100020104000104020001AE
:1097A2000204000302020102030201020203010198
:1097B200010102FEAF809A90B68EB78F80D2D3D4C9
:1097C200D8D7DE8E8F909292E299E3EAEB59999A7A
:1097D2009D9C9D9E9FB5D6E0E9A5A5A6A7A8A9AA8E
:1097E200ABAC21AEAFB0B1B2B3B4B5B6B7B8B9BADB
:1097F200BBBCBDBEBFC0C1C2C3C4C5C7C7C8C9CA3E
:10980200CBCCCDCECFD1D1D2D3D4D5D6D7D8D9DA2D
:10981200DBDCDDDEDFE0E1E2E3E5E5E6E7E7E9EA1E
:10982200EBEDEDEEEFF0F1F2F3F4F5F6F7F8F9FA0D
:10983200FBFCFDFEFF01030507090E1012141618AA
:109842001C1E0000020000000000000008000000D2
:1098520000000000200000004000000080002D33C6
:109862003237363800256400222A3A3C3E3F7C7F5C
:10987200002B2C3B5B3D5D00256C690050617261E1
:109882002066696C656E616D653A20002F696E69AC
:10989200742E747874002F00256325632563256375
:1098A20025632025752F253032752F2530327520FE
:1098B200253032753A253032752025396C752020D5
:1098C2002573002534752046696C652873292C257B
:1098D20031306C7520627974657320746F74616CB9
:1098E2000D0A2534752044697228732900256325E1
:1098F200630020204C6F6573756E672025643A20E3
:10990200002025396C6420566572732E20256C6404
:1099120020730A00256420004B6F6D62696E6174CA
:10992200696F6E656E2077657264656E2067657318
:10993200756368742E2E2E0A000A0A4C6175667AC7
:109942006569743A20256C642053656B756E646595
:109952006E2E0A0A000A0A4C6175667A6569743AC3
:1099620020256C642E256C642053656B756E6465CE
:109972006E202870726F2052756E6465292E0A0A55
:109982000056657273756368653A202531306C64E0
:109992000A00426F6F7420696D6167652069643ADD
:1099A200202530386C780A00426F6F742041707045
:1099B2002056657273696F6E3A20253034780A003A
:1099C200256C64000A416464723A2025780A0043D7
:1099D2004D443A2025780A002D2D202530386C7808
:1099E200202530386C780A00464C41534820447593
:1099F2006D70000A2530386C783A200025303478B2
:109A020020000A2D2D202530386C78202530386C26
:109A1200782025730A00464C415348205265616400
:109A2200000A52656164696E6720646F6E65006644
:109A32006F70656E206661696C6564000A2D2D2069
:109A42002530386C782025730A00464C4153482053
:109A52005772697465000A464C415348205772692F
:109A620074656E2028256C6420576F726473290A0E
:109A7200000A457261736520466C617368207768DD
:109A8200696C65204C454420697320626C696E6B79
:109A9200696E67202E2E2E00666F70656E2025730C
:109AA200206661696C656420282564290A00462DB8
:109AB20053697A653A20256C640A0052414D205759
:109AC20072697465000A52414D2057726974746557
:109AD2006E2028256C6420576F726473290A000077
:08F7F8000A00000000000000FF
:00000001FF
